:100000000C9462000C94C60B0C949F0B0C948A0009
:100010000C948A000C948A000C948A000C948A0038
:100020000C948A000C94450C0C948A000C948A0061
:100030000C948A000C948A000C948A000C948A0018
:100040000C94550B0C948A000C94130C0C94ED0B2F
:100050000C948A000C948A000C948A000C948A00F8
:100060000C94360A0C948A0000000000240027003B
:100070002A0000000000250028002B0000000000DE
:1000800023002600290004040404040404040202DA
:100090000202020203030303030301020408102007
:1000A0004080010204081020010204081020000012
:1000B0000008000201000003040700000000000027
:1000C0000000B70C11241FBECFEFD8E0DEBFCDBFBC
:1000D00013E0A0E0B1E0E2E4F9E202C005900D9285
:1000E000A435B107D9F725E0A4E5B3E001C01D921E
:1000F000A230B207E1F710E0C2E6D0E004C02197D9
:10010000FE010E94CA12C136D107C9F70E94220D12
:100110000C949F140C940000E1E4F4E0A089B189F0
:1001200082E08C93A485B5851C92A685B7858FEC5B
:100130008C93108EA489B58986E08C93A289B389AB
:100140008C9180618C93A289B3898C9188608C9307
:10015000A289B3898C9180688C930288F389E02D01
:1001600080818F7D808308952091C003260F3327DF
:10017000331F21323105ECF420910B04FC0190E097
:1001800080E0243069F082E00895A091C0032191BD
:10019000AC0142565C4FA40FB52FB11D2C930196B4
:1001A000861798F38091C003680F6093C00380E0C6
:1001B000089581E00895089508950895E0919C03BD
:1001C00080919B03E81730F4F0E0E558FC4F808104
:1001D00090E008958FEF9FEF089590919C03809198
:1001E0009B032FEF3FEF981748F4E92FF0E0E55815
:1001F000FC4F208130E09F5F90939C03C9010895DC
:1002000080919B0390919C03891B990B0895CF9239
:10021000DF92EF92FF920F931F93CF93DF937C01B6
:10022000CB018A0120911104222389F0EB016B019B
:10023000C40ED51ECC15DD0569F06991D701ED918D
:10024000FC910190F081E02DC7010995F3CF642F57
:100250000E94B400C801DF91CF911F910F91FF90D0
:10026000EF90DF90CF900895CF93DF931F92CDB79B
:10027000DEB76983209111042223F9F02091340420
:10028000203258F021E030E0FC013383228390E0FB
:1002900080E00F90DF91CF91089580911204E82FB4
:1002A000F0E0ED5EFB4F998190838F5F80931204A5
:1002B0008093340481E090E0ECCF61E0CE010196C0
:1002C0000E94B400F7CF833081F028F4813099F098
:1002D0008230A9F008958730A9F08830C9F08430C1
:1002E000B1F4809180008F7D03C0809180008F7772
:1002F00080938000089584B58F7784BD089584B578
:100300008F7DFBCF8091B0008F778093B0000895F0
:100310008091B0008F7DF9CFCF93DF93282F30E00D
:10032000F901E255FF4F8491F901E656FF4FD49150
:10033000F901EA57FF4FC491CC23A1F081110E942B
:100340006301EC2FF0E0EE0FFF1FE458FF4FA59183
:10035000B491EC91ED2381E090E009F480E0DF912D
:10036000CF91089580E090E0FACF1F93CF93DF9371
:10037000282F30E0F901E255FF4F8491F901E6564C
:10038000FF4FD491F901EA57FF4FC491CC23A9F054
:10039000162F81110E946301EC2FF0E0EE0FFF1F7A
:1003A000EE58FF4FA591B4918FB7F894EC911111CD
:1003B00008C0D095DE23DC938FBFDF91CF911F91D2
:1003C0000895DE2BF8CF10920B0481E080930A048D
:1003D0001092E50361E082E10E94B50161E083E1F2
:1003E0000E94B501E9EBF0E080818E7F80838081FF
:1003F0008D7F808388E48093B80085E48093BC007F
:100400000895CF93DF9391E090939D038823B9F0F3
:10041000C091B800D091BA008091BC008A7B8093D3
:10042000BC0060E082E10E94B50160E083E10E94CF
:10043000B5010E94E301D093BA00C093B800DF91E8
:10044000CF910895CF93DF9390E0FC01E656FF4FE4
:1004500024918A579F4FFC0184918823D1F090E02A
:10046000880F991FFC01E859FF4FA591B491FC0139
:10047000EE58FF4FC591D49161110EC09FB7F8940B
:100480008C91E22FE0958E238C932881E223E883E0
:100490009FBFDF91CF9108958FB7F894EC91E22B35
:1004A000EC938FBFF6CF1F93CF93DF93182FEB0101
:1004B00061E00E942202209739F460E0812FDF91F1
:1004C000CF911F910C94B501E12FF0E0E255FF4F61
:1004D000E491E33039F148F4E130B9F0E230E9F089
:1004E000C038D10554F361E0E9CFE73029F1E830B5
:1004F00059F1E430A9F780918000806280938000F8
:10050000D0938B00C0938A0004C084B5806884BDFA
:10051000C7BDDF91CF911F91089584B5806284BDDE
:10052000C8BDF7CF80918000806880938000D09311
:100530008900C0938800EDCF8091B00080688093DF
:10054000B000C093B300E5CF8091B000806280938B
:10055000B000C093B400DDCF8E50806480937C00E7
:1005600080917A00806480937A0080917A0086FD81
:10057000FCCF809178009091790008953FB7F8946E
:100580008091770390917803A0917903B0917A03D9
:1005900026B5A89B05C02F3F19F00196A11DB11DDE
:1005A0003FBFBA2FA92F982F8827BC01CD01620F1A
:1005B000711D811D911D42E0660F771F881F991FD5
:1005C0004A95D1F70895CF92DF92EF92FF920F9361
:1005D0001F93CF93DF93D091340481E0D13208F0A0
:1005E0009CC0C09133040E94BE026B017C018091CB
:1005F0000B0481116CC082E080930B0481E0809336
:100600000A048FEF8093090410920804D093070422
:10061000A3E1B4E0E7EEF3E080E0D8138DC01092E0
:10062000E6038091E603CC0FC82BC093E6038091CC
:10063000E503813009F084C01092E5030E94BE02F8
:100640006B017C018091E6038093BB0080910D04D7
:1006500090910E04A0910F04B0911004892B8A2B65
:100660008B2BA1F00E94BE0200910D0410910E048C
:1006700020910F04309110046C197D098E099F0997
:10068000061717072807390708F442C08091BC00F5
:1006900083FDD8CF85EC8093BC000E94BE026B0125
:1006A0007C0180910B04823009F44CC080910904D4
:1006B0008F3F09F469C080910904803209F466C053
:1006C00080910904803309F463C084E026C08091DE
:1006D0000D0490910E04A0910F04B0911004892B89
:1006E0008A2B8B2B09F483CF0E94BE0200910D044C
:1006F00010910E0420910F04309110046C197D09A3
:100700008E099F09061717072807390708F06FCFCA
:1007100080910C040E94010285E010921204109254
:10072000340410921104DF91CF911F910F91FF902B
:10073000EF90DF90CF9008959D9191938F5F6DCF53
:1007400085EEA9CF80910D0490910E04A0910F0425
:10075000B0911004892B8A2B8B2B09F4A2CF0E9415
:10076000BE0200910D0410910E0420910F043091EF
:1007700010046C197D098E099F09061717072807B1
:10078000390708F08ECFC4CF80E0C7CF82E0C5CF55
:1007900083E0C3CF8F929F92AF92BF92CF92DF92AE
:1007A000EF92FF924B015C010E94BE026B017C0143
:1007B0000E94BE026C197D098E099F09683E734034
:1007C00081059105A8F321E0821A9108A108B108DA
:1007D00088EEC80E83E0D81EE11CF11C8114910440
:1007E000A104B10429F7FF90EF90DF90CF90BF9064
:1007F000AF909F908F9008952FB7F89460917303F6
:100800007091740380917503909176032FBF0895C2
:100810000895AF92BF92CF92DF92EF92FF920F9323
:100820001F93CF93DF936C017B018B01040F151F86
:10083000EB015E01AE18BF08C017D10759F06991EE
:10084000D601ED91FC910190F081E02DC601099552
:10085000892B79F7C501DF91CF911F910F91FF90FF
:10086000EF90DF90CF90BF90AF900895FC01538D33
:10087000448D252F30E0842F90E0821B930B54177A
:1008800010F0CF96089501970895FC01918D828D07
:10089000981761F0A28DAE0FBF2FB11D5D968C91A0
:1008A000928D9F5F9F73928F90E008958FEF9FEFDF
:1008B0000895FC01918D828D981731F0828DE80F9B
:1008C000F11D858D90E008958FEF9FEF0895FC0155
:1008D000918D228D892F90E0805C9F4F821B910922
:1008E0008F739927089581E494E00E94670421E0C2
:1008F000892B09F420E0822F089580E090E0892B75
:1009000029F00E94730481110C9400000895FC01E9
:10091000A48DA80FB92FB11DA35ABF4F2C91848D60
:1009200090E001968F739927848FA689B7892C93BD
:10093000A089B1898C91837080648C93938D848D10
:10094000981306C00288F389E02D80818F7D808313
:100950000895EF92FF920F931F93CF93DF93EC01D3
:1009600081E0888F9B8D8C8D98131AC0E889F98956
:10097000808185FF15C09FB7F894EE89FF89608359
:10098000E889F98980818370806480839FBF81E0DA
:1009900090E0DF91CF911F910F91FF90EF9008951C
:1009A000F62E0B8D10E00F5F1F4F0F731127E02EF7
:1009B0008C8D8E110CC00FB607FCFACFE889F9892F
:1009C000808185FFF5CFCE010E948704F1CFEB8DAA
:1009D000EC0FFD2FF11DE35AFF4FF0829FB7F89403
:1009E0000B8FEA89FB8980818062CFCFCF93DF9321
:1009F000EC01888D8823B9F0AA89BB89E889F98937
:100A00008C9185FD03C0808186FD0DC00FB607FC6B
:100A1000F7CF8C9185FFF2CF808185FFEDCFCE019E
:100A20000E948704E9CFDF91CF910895FC012381D3
:100A30002223F1F0262F61816095622360838281F9
:100A400091E0909311048093330410921204109259
:100A5000340485E394E00E9434010E94E302282FCD
:100A600030E081E090E0232B11F090E080E00895E9
:100A700030E020E0F6CFEF92FF920F931F93CF93D9
:100A80008C01FC0184E0C0E0262F30E060FF02C052
:100A90009589C92BB901759567958150319681115A
:100AA000F3CF413011F4F8014489F8016585C62B74
:100AB000C42B7801FEE0EF0EF11CF80162896C2B6B
:100AC000C7010E941605F801628960956C23C70171
:100AD000CF911F910F91FF90EF900C9416050F93FB
:100AE0001F93CF93DF93062F0F70423041F440E005
:100AF000602FDF91CF911F910F910C943B05142F24
:100B0000EC0170E084E0759567958A95E1F7CE0178
:100B10000E943B05412F602FCE01EBCFFC01848565
:100B20008823A1F0218532852115310521F4611139
:100B300007C0158606C021303105D9F76111F9CFFC
:100B400085876585CF010E960C941605089521E0E2
:100B500001C0220F6A95EAF7DC011C962C931C97C2
:100B60001A965C934E931997ED91FC910484F58548
:100B7000E02D60E00994DC01ED91FC910684F7859D
:100B8000E02D41E0099581E090E00895DC01ED91D0
:100B9000FC910684F785E02D40E009940F931F93A4
:100BA000CF93DF93CDB7DEB728970FB6F894DEBFAB
:100BB0000FBECDBF009104011091050120910601E7
:100BC000309107010D831E832F8338870091080120
:100BD0001091090120910A0130910B0109831A83B8
:100BE0002B833C839091F004691710F06FEF690F2D
:100BF000262F30E04091F1042C0F3D1FF9014031C8
:100C000099F4943089F46181680F606889EE94E00A
:100C100028960FB6F894DEBF0FBECDBFDF91CF91FF
:100C20001F910F910C94C6056581EECF61E00E9483
:100C3000C6058BE39FE10197F1F708950F931F938A
:100C4000CF93DF93EC01423018F08C8188608C8365
:100C50004F836887222329F0413019F48C81846006
:100C60008C8364E670E080E090E00E94CA036C81AF
:100C700064FD57C0E881F9810684F785E02D42E0E4
:100C800063E0CE0109958BE496E40197F1F7E881E2
:100C9000F9810684F785E02D42E063E0CE010995F5
:100CA00003E512E0C8010197F1F7E881F9810684B4
:100CB000F785E02D42E063E0CE010995C801019778
:100CC000F1F7E881F9810684F785E02D42E062E0E2
:100CD000CE010995C8010197F1F76C816062CE01E0
:100CE0000E94C6058BEE90E00197F1F784E08D83BA
:100CF0006CE0CE010E94C605CE010E94160682E07D
:100D00008E8366E0CE010E94C605E881F9810484E5
:100D1000F585E02D6FEFCE01DF91CF911F910F91FF
:100D200009946062CE010E94C6058BE496E40197A7
:100D3000F1F76C816062CE010E94C60503E512E006
:100D4000C8010197F1F76C816062CE010E94C6056F
:100D5000C1CFEF92FF920F931F93CF93DF93EC01DC
:100D6000062FF42EE22E8B85888B10929C03109216
:100D70009B0310921204109234040E94E3018BED45
:100D800090E09093BF038093BE038CED90E090932E
:100D9000C3038093C203888911E0109311048093E8
:100DA00033040E94E30281111CC0198B85E394E097
:100DB0000E94ED008E878989882339F01F861C8266
:100DC00060E0CE010E960E9416052E2D4F2D602F4D
:100DD000CE01DF91CF911F910F91FF90EF900C9476
:100DE0001E06198AE8CF08950895089590E080E0DE
:100DF00008950F931F930E94FC03009154031091D8
:100E000055032091560330915703601B710B820BE1
:100E1000930B6531710581059105F8F00E94FC0383
:100E20006093540370935503809356039093570334
:100E30008091E3048823A1F08091E804853069F073
:100E40008091E804833049F48091E4049091E504B2
:100E500001969093E5048093E4041F910F91089507
:100E60008091E8048530E9F08091E8048630C9F08B
:100E70008091E804833049F58091E4049091E50481
:100E800001969093E5048093E4042091E40430916A
:100E9000E5048091E6049091E704281739078CF463
:100EA000DCCF8091E4049091E50401979093E504F0
:100EB0008093E4048091E4049091E50418161906E7
:100EC00064F281E080936D03C8CF8091E8048430A0
:100ED00021F6D2CF85ED8093BC0080910D049091D6
:100EE0000E04A0910F04B09110040796A11DB11D2E
:100EF00023E0B695A795979587952A95D1F72091E8
:100F0000BC0024FD03C010920B04089540910D0411
:100F100050910E0460910F0470911004452B462BE4
:100F2000472B69F30097A105B10541F025E32A9508
:100F3000F1F700000197A109B109E1CF80910C04FC
:100F40000C9401020E949A14FB0101900020E9F721
:100F50003197AF01461B570BDC01ED91FC910280EC
:100F6000F381E02D09948F929F92AF92BF920F93DD
:100F70001F93CF93DF93CDB7DEB7A1970FB6F89449
:100F8000DEBF0FBECDBF19A2423008F44AE08E0189
:100F90000F5D1F4F842E912CB12CA12CA501940123
:100FA0000E94A812E62FB901CA01EA3004F5E05DFB
:100FB000D801EE938D01232B242B252B79F790E07C
:100FC00080E0109729F0BD0181E494E00E94A4071D
:100FD000A1960FB6F894DEBF0FBECDBFDF91CF91C3
:100FE0001F910F91BF90AF909F908F900895E95CF3
:100FF000DFCFCF93DF93BC0181E494E00E94A4078C
:10100000EC0164E471E081E494E00E94A4078C0F99
:101010009D1FDF91CF910895CF92DF92EF92FF92C3
:10102000CF93DF936C01990FEE08FF08F7FE21C004
:101030006DE281E494E00E94A904EC016627772721
:10104000CB016C197D098E099F094AE00E94B30704
:10105000C80FD91F64E471E081E494E00E94A40702
:101060008C0F9D1FDF91CF91FF90EF90DF90CF907D
:1010700008954AE0C701B6010E94B307EC01EACF28
:101080000C94A407CF93DF93CEEDD4E085E08A875C
:1010900061E089EE94E00E948E0589EE94E00E9462
:1010A000160661E080E00E94CE0567E471E089EEFB
:1010B00094E00E94400866E571E081E494E00E94BB
:1010C000400870E060E086E00E9453026AEA70E047
:1010D00085E00E94530281E090E099838883DF914C
:1010E000CF9108950C949A12CF93DF9361E089EE2B
:1010F00094E00E948E0589EE94E00E94160660E05E
:1011000080E00E94CE056AE872E089EE94E00E94D9
:10111000400868E671E081E494E00E94400861E0E4
:1011200080E00E94CE0560E771E089EE94E00E94C5
:10113000400870E060E086E00E94530270E060E0EA
:1011400085E00E945302CEEDD4E01F821E821986F4
:1011500018866E817F8190E080E00E947208688529
:10116000798581E090E00E947208A895DF91CF9187
:1011700008958091E304882309F458C070E060E08A
:1011800086E00E94530270E060E085E00E94530216
:101190001092DF041092DE0489EE94E00E9416069D
:1011A00060E080E00E94CE056FE771E089EE94E098
:1011B0000E9440086FE871E081E494E00E944008DA
:1011C00061E080E00E94CE056EE971E089EE94E076
:1011D0000E9440088FE791E00E94F9078EE991E0B4
:1011E0000E94F9078091E4049091E5049093E7044C
:1011F0008093E60484E08093E8046091E4047091B5
:10120000E50490E080E00E9472086091E60470912D
:10121000E70481E090E00E9472086091E80482E0B7
:1012200090E00E9472081092E304089561E089EE54
:1012300094E00E948E0589EE94E00E94160660E01C
:1012400080E00E94CE056BEA71E089EE94E00E9496
:1012500040088BEA91E00E94F90781E08093E30463
:101260006AEA70E086E00E94530270E060E085E088
:101270000E94530281E090E09093DF048093DE04AB
:1012800068EE73E080E090E00C94CA038091E30480
:10129000882309F45CC070E060E086E00E9453029D
:1012A00070E060E085E00E9453021092DF0410922B
:1012B000DE0489EE94E00E94160660E080E00E9461
:1012C000CE056BEB71E089EE94E00E94400869EC7A
:1012D00071E081E494E00E94400861E080E00E94B7
:1012E000CE056AED71E089EE94E00E94400868EE58
:1012F00071E081E494E00E9440088091E4049091C0
:10130000E5040E940C081092E7041092E604109283
:10131000E7041092E60482E08093E8046091E4041C
:101320007091E50490E080E00E9472086091E6040C
:101330007091E70481E090E00E9472086091E804F7
:1013400082E090E00E9472081092E304089561E048
:1013500089EE94E00E948E0589EE94E00E941606C4
:1013600060E080E00E94CE0561E072E089EE94E0EA
:101370000E94400881E092E00E94F90781E080939A
:10138000E3041092E5041092E4041092E704109232
:10139000E60485E08093E8046091E4047091E5043C
:1013A00090E080E00E9472086091E6047091E7048A
:1013B00081E090E00E9472086091E80482E090E091
:1013C0000E94720881E090E09093DF048093DE0435
:1013D00070E060E086E00E9453026AEA70E085E017
:1013E0000E94530268EE73E080E090E00C94CA0320
:1013F00080E10E94AC028839934044F461E080E1CE
:101400000E94220261E080E10C94B50160E080E17D
:101410000E94220280E10E94AC02893E93402CF19E
:1014200084E08093E8046091E4047091E50490E026
:1014300080E00E9472086091E6047091E70481E008
:1014400090E00E9472086091E80482E090E00E94BF
:10145000720862E172E081E494E00E94400867E271
:1014600072E081E494E00C94400808951F920F927A
:101470000FB60F9211242F933F934F935F936F9367
:101480007F938F939F93AF93BF93EF93FF9380913D
:10149000B900887F803609F44AC0F0F5883209F433
:1014A000A7C018F5803109F49BC0B8F4882309F46B
:1014B000F9C0883009F494C0FF91EF91BF91AF91CA
:1014C0009F918F917F916F915F914F913F912F915C
:1014D0000F900FBE0F901F901895883109F488C0A7
:1014E000803251F78093090414C0803409F49DC000
:1014F00040F48033B9F38833F9F68093090485EC1E
:10150000B0C0803509F485C0883509F496C08834A8
:1015100099F60E946A07D0CF883909F48CC038F553
:10152000883729F050F4883611F0803729F683E0A7
:1015300080930B041092E40357C0883809F47BC0F1
:10154000803919F0803809F0B7CF8091E4038032F8
:1015500008F071C0E091E40381E08E0F8093E40312
:101560008091BB00F0E0EC53FC4F80833DC0803B9A
:1015700039F0E0F4803A09F479C0883A09F09CCF58
:1015800084E080930B041092C1031092C003E09199
:10159000BE03F091BF0309958091C00381110FC074
:1015A00081E08093C00310929E0309C0803C09F43F
:1015B000A6CF883C09F4A3CF883B09F07DCFE0910A
:1015C000C10381E08E0F8093C103F0E0E256FC4F2F
:1015D00080818093BB009091C1038091C00329C09A
:1015E0008091E6038093BB0085EC8093BC0064CFC0
:1015F0009091080480910704981758F5E091080429
:1016000081E08E0F80930804F0E0E951FC4F808167
:10161000E9CFE091080481E08E0F80930804809167
:10162000BB00F0E0E951FC4F808390910804809169
:1016300007049817C8F285E8D8CFE091080481E044
:101640008E0F809308048091BB00F0E0E951FC4FBD
:10165000808380910A0481115CCF81E08093E5034F
:1016600084EA8093BC0010920B0426CF85EC809313
:10167000BC0010920B048091E403803230F4E091BE
:10168000E403F0E0EC53FC4F10826091E40370E05F
:10169000E091C203F091C30384EC93E009951092AA
:1016A000E4030ACF1092090434CF1F920F920FB6B1
:1016B0000F9211242F933F938F939F93AF93BF93D8
:1016C0008091730390917403A0917503B091760398
:1016D0003091720323E0230F2D3758F50196A11D99
:1016E000B11D209372038093730390937403A093AE
:1016F0007503B09376038091770390917803A0915E
:101700007903B0917A030196A11DB11D80937703EF
:1017100090937803A0937903B0937A03BF91AF912C
:101720009F918F913F912F910F900FBE0F901F901F
:10173000189526E8230F0296A11DB11DD2CF1F9246
:101740000F920FB60F9211242F933F934F935F93F5
:101750006F937F938F939F93AF93BF93EF93FF9379
:10176000E0910201F09103010995FF91EF91BF9182
:10177000AF919F918F917F916F915F914F913F9129
:101780002F910F900FBE0F901F9018951F920F92E0
:101790000FB60F9211242F933F934F935F936F9344
:1017A0007F938F939F93AF93BF93EF93FF93E091BA
:1017B0000001F09101010995FF91EF91BF91AF9167
:1017C0009F918F917F916F915F914F913F912F9159
:1017D0000F900FBE0F901F9018951F920F920FB68B
:1017E0000F9211242F933F934F935F936F937F93A7
:1017F0008F939F93AF93BF93EF93FF9381E494E014
:101800000E948704FF91EF91BF91AF919F918F91BB
:101810007F916F915F914F913F912F910F900FBEEC
:101820000F901F9018951F920F920FB60F921124D0
:101830002F938F939F93EF93FF93E0915104F09137
:1018400052048081E0915704F091580482FD1BC03E
:10185000908180915A048F5F8F7320915B0482176F
:1018600041F0E0915A04F0E0EF5BFB4F958F8093DD
:101870005A04FF91EF919F918F912F910F900FBE7E
:101880000F901F9018958081F4CF1F920F920FB682
:101890000F9211242F933F934F935F936F937F93F6
:1018A0008F939F93AF93BF93EF93FF9380915E03CA
:1018B00090915F038093B2008091610390916203E5
:1018C000A0916303B09164030196A11DB11D8093A3
:1018D000610390936203A0936303B09364038091C8
:1018E000610390916203A0916303B09164034091FE
:1018F0005A0350915B0360915C0370915D03841700
:101900009507A607B70710F18091600381111EC0EB
:1019100081E0809360038091610390916203A091C4
:101920006303B0916403841B950BA60BB70B8093E4
:10193000610390936203A0936303B0936403E09107
:101940005803F0915903099510926003FF91EF91AC
:10195000BF91AF919F918F917F916F915F914F91C7
:101960003F912F910F900FBE0F901F901895E5E3B8
:10197000F4E01382128288EE93E0A0E0B0E084836A
:101980009583A683B78320E131E031832083E1E4AE
:10199000F4E01382128284839583A683B78382E264
:1019A00091E09183808385EC90E09587848784EC37
:1019B00090E09787868780EC90E0918B808B81EC1C
:1019C00090E0938B828B82EC90E0958B848B86ECFD
:1019D00090E0978B868B118E128E138E148EE9EE0B
:1019E000F4E01382128284E391E091838083108A71
:1019F0008FEF87871686118A87E28387148615867C
:101A00001286118684E0828B82E0838B81E0848B56
:101A100080E1858B80E2868B80E4878B80E8808FF5
:101A200050E040E063E0CF010E94A705EEEDF4E056
:101A300011821082138212821582178216821186F9
:101A400010860895789484B5826084BD84B58160E1
:101A500084BD85B5826085BD85B5816085BD809179
:101A60006E00816080936E001092810080918100F1
:101A700082608093810080918100816080938100E9
:101A8000809180008160809380008091B1008460AB
:101A90008093B1008091B00081608093B00080910C
:101AA0007A00846080937A0080917A0082608093CB
:101AB0007A0080917A00816080937A0080917A0028
:101AC000806880937A001092C1000E948C0020E010
:101AD00042E060E189EE94E00E94A90689EE94E07C
:101AE0000E94160660E083E00E94CE0560E089EE69
:101AF00094E00E948E051092E20490E080E00E9443
:101B0000921290E09093E5048093E40481E090E0E9
:101B10000E94921290E09093E7048093E60482E0A2
:101B200090E00E9492128093E80461E085E00E94B8
:101B3000220261E086E00E94220260E087E00E94CB
:101B4000220260E083E00E94220260E084E00E94C2
:101B5000220260E08AE00E94220260E08BE00E94A4
:101B6000220260E08CE00E94220260E08EE00E948F
:101B7000220260E082E00E9422020E948C0088E142
:101B800099E20FB6F894A895809360000FBE9093E9
:101B9000600089EF96E090930101809300018091AD
:101BA00069008C7F826080936900E89A8AE090E007
:101BB000A0E0B0E080935A0390935B03A0935C0392
:101BC000B0935D0388EF99E0909359038093580395
:101BD000809170008E7F809370008091B0008C7F28
:101BE0008093B0008091B100877F8093B100809195
:101BF000B6008F7D8093B600809170008D7F8093BA
:101C000070008091B10084608093B1008091B10038
:101C10008C7F8093B10086E090E090935F03809387
:101C20005E0310926103109262031092630310929C
:101C300064031092600380915E0390915F03809330
:101C4000B2008091700081608093700060E372E068
:101C500081E494E00E94400800E010E0C1E0D6E09A
:101C6000AA24A394B12C8091E20481119DC070E05C
:101C700060E086E00E94530270E060E085E00E9430
:101C8000530260E089EE94E00E948E0589EE94E0B4
:101C90000E94160683E00E948C01019709F077C02C
:101CA00083E00E948C010197D9F3C093E20470E0B5
:101CB00060E086E00E94530270E060E085E00E94F0
:101CC000530261E089EE94E00E948E058091E80461
:101CD000863031F560E080E00E94CE056AE372E074
:101CE00089EE94E00E94400869E472E081E494E0A7
:101CF0000E94400868EE71E081E494E00E94400890
:101D00008091E4049091E5040E940C0861E080E079
:101D10000E94CE056AE572E089EE94E00E944008D8
:101D20008091E804843031F560E080E00E94CE05C7
:101D300066E672E089EE94E00E94400864E772E093
:101D400081E494E00E94400868EE71E081E494E050
:101D50000E9440088091E4049091E5040E940C08E0
:101D600061E080E00E94CE056EE971E089EE94E0CA
:101D70000E9440088091E804811109C061E00E943E
:101D8000CE0564E872E089EE94E00E944008A895D0
:101D90000115110509F467CF0E947304882309F423
:101DA00062CF0E9400005FCF8091E204813079F71A
:101DB000E091E804E83058F70E2E000CFF0BED51CF
:101DC000F14F0C94CA12EB0E170F920FCB0F3C1071
:101DD00068100A125E1270E060E086E00E94530212
:101DE00070E060E085E00E94530283E00E948C0175
:101DF000019739F483E00E948C010197D9F3109286
:101E0000E2048AE00E948C01019709F0C0CF8AE0C9
:101E10000E948C010197D9F30E947408C093E804D2
:101E20006091E80482E090E00E947208B0CF8AE0FE
:101E30000E948C01019709F059C00E94FC03609335
:101E40006E0370936F0380937003909371038AE025
:101E50000E948C01019709F049C00E94FC03C090C8
:101E60006E03D0906F03E0907003F09071036C19D3
:101E70007D098E099F09683873418105910538F302
:101E800061E089EE94E00E948E0589EE94E00E9464
:101E9000160660E080E00E94CE0560E972E089EEFF
:101EA00094E00E94400860ED77E080E090E00E94BE
:101EB000CA0360E080E00E94CE056EE972E089EE20
:101EC00094E00E94400861E080E00E94CE056FEA45
:101ED00072E089EE94E00E9440081092E80460915C
:101EE000E80482E090E00E947208B1CF83E00E9493
:101EF0008C01019739F483E00E948C010197D9F39A
:101F00001092E2048CE00E948C01019709F03FCF0F
:101F10008CE00E948C010197D9F31092E3040E9497
:101F2000460935CF8BE00E948C01019791F48BE03C
:101F30000E948C010197D9F383E08093E8046091BB
:101F4000E80482E090E00E9472081092E3040E948C
:101F5000B9088AE00E948C01019779F48AE00E9416
:101F60008C010197D9F30E947408C093E804609132
:101F7000E80482E090E00E94720883E00E948C01F5
:101F8000019709F004CF83E00E948C010197D9F3F7
:101F90001092E204FCCE80916D038823E9F1109247
:101FA0006D0370E060E086E00E94530270E060E044
:101FB00085E00E9453021092DF041092DE0489EE45
:101FC00094E00E94160660E080E00E94CE0566E67E
:101FD00072E089EE94E00E94400861E080E00E9497
:101FE000CE056EE971E089EE94E00E9440086FEB47
:101FF00072E081E494E00E9440086CEC72E081E4BD
:1020000094E00E9440088091E4049091E5040E94CD
:102010000C0884E08093E8048091E304882361F055
:102020008BE00E948C01019739F48BE00E948C01B7
:102030000197D9F30E94B9088AE00E948C010197A8
:1020400079F48AE00E948C010197D9F30E94740808
:10205000C093E8046091E80482E090E00E94720876
:1020600083E00E948C01019709F091CE83E00E94E9
:102070008C010197D9F38CCF84E00E948C010197E9
:1020800039F484E00E948C010197D9F30E94420840
:102090008AE00E948C01019779F48AE00E948C0109
:1020A0000197D9F30E947408C093E8046091E80492
:1020B00082E090E00E94720883E00E948C01019708
:1020C00009F065CE83E00E948C010197D9F360CFBF
:1020D0000E94FC03C0906903D0906A03E0906B03F8
:1020E000F0906C036C197D098E099F09683C71059D
:1020F0008105910508F49DC08EE00E94AC02BC01F0
:10210000990F880B990B0E9473132FE03CE340EF6B
:102110005CE30E94281460936503709366038093C8
:1021200067039093680365EE72E081E494E00E9497
:102130004008C0906503D0906603E0906703F0907C
:102140006803A7019601C701B6010E94951464EFC8
:1021500072E081111BC026013701E89477F82FEF58
:102160003FEF4FE75FE7C301B2010E949514811171
:10217000D0C02FEF3FEF4FE75FE7C301B2010E94EE
:102180003D1318160CF0C5C068EF72E081E494E0CE
:102190000E94A40764E471E081E494E00E94A40733
:1021A00020E030E040EA51E46091650370916603FD
:1021B00080916703909168030E94231418167CF5A0
:1021C00089EE94E00E94160670E060E086E00E94CE
:1021D000530270E060E085E00E9453021092DF0439
:1021E0001092DE0460E080E00E94CE0560E073E0C3
:1021F00089EE94E00E94400880E093E00E94F90795
:102200008091E804823009F0FBC061E080E00E9428
:10221000CE056BE073E089EE94E00E9440080E94D6
:10222000FC036093690370936A0380936B0390933C
:102230006C0380916D038823E1F110926D0370E0CF
:1022400060E086E00E94530270E060E085E00E945A
:1022500053021092DF041092DE0489EE94E00E9493
:10226000160660E080E00E94CE0568E173E089EE2A
:1022700094E00E94400861E080E00E94CE056AE59B
:1022800072E089EE94E00E94400866E273E081E427
:1022900094E00E9440086CEC72E081E494E00E94BB
:1022A00040088091E4049091E5040E940C08D093CA
:1022B000E8048091E304882361F08CE00E948C01A3
:1022C000019739F48CE00E948C010197D9F30E94A8
:1022D00046098AE00E948C01019779F48AE00E9405
:1022E0008C010197D9F30E947408C093E8046091AF
:1022F000E80482E090E00E94720883E00E948C0172
:10230000019709F044CD83E00E948C010197D9F335
:102310003FCE2FEF3FEF4FE75FE4C701B6010E94CA
:10232000231418161CF46CEF72E030CF2FEF3FEF40
:102330004FE75FECC701B6010E943D1387FDF3CF65
:1023400020E030E0A901C701B6010E943D1387FFDC
:1023500009C06DE281E494E00E94A904F7FAF094C8
:10236000F7F8F0942AE037ED43EA5BE3C701B601E2
:102370000E94D1122B013C010E9442136B017C018F
:102380000E9471139B01AC01C301B2010E94D012E3
:102390002B013C014AE0C701B6010E94B3076EE27F
:1023A00081E494E00E94A90420E030E040E251E49E
:1023B000C301B2010E9428142B013C010E94421368
:1023C0006B01F12CE12C4AE0C701B6010E94B30772
:1023D000C701B6010E9471139B01AC01C301B20198
:1023E0000E94D01220E030E040E251E40E94281424
:1023F0000E94421390E080E04AE00E94B307CACEF8
:1024000087E08093E8046091E80482E090E00E9415
:10241000720805CF87E00E948C01019779F587E06B
:102420000E948C010197D9F383E08093E80461E076
:1024300089EE94E00E948E0589EE94E00E941606D3
:1024400061E080E00E94CE0564E373E089EE94E0F1
:102450000E94400862E473E081E494E00E94400836
:102460006AEA70E086E00E94530270E060E085E076
:102470000E945302B092DF04A092DE048AE00E9420
:102480008C01019779F48AE00E948C010197D9F3BD
:102490000E947408C093E8046091E80482E090E030
:1024A0000E94720883E00E948C01019709F06FCCB2
:1024B00083E00E948C010197D9F36ACD84E00E94E9
:1024C0008C01019779F484E00E948C010197D9F383
:1024D0000E944208D093E8046091E80482E090E012
:1024E0000E9472088AE00E948C01019779F48AE0C8
:1024F0000E948C010197D9F30E947408C093E804EC
:102500006091E80482E090E00E94720883E00E94FB
:102510008C01019709F03BCC83E00E948C0101976C
:10252000D9F336CDF999FECF92BD81BDF89A99279E
:1025300080B50895262FF999FECF1FBA92BD81BDAF
:1025400020BD0FB6F894FA9AF99A0FBE0196089535
:10255000A1E21A2EAA1BBB1BFD010DC0AA1FBB1FA7
:10256000EE1FFF1FA217B307E407F50720F0A21B19
:10257000B30BE40BF50B661F771F881F991F1A9486
:1025800069F760957095809590959B01AC01BD01B0
:10259000CF010895EE0FFF1F0590F491E02D0994EF
:1025A0005058BB27AA270E94E8120C94E9130E94F6
:1025B000DB1338F00E94E21320F039F49F3F19F446
:1025C00026F40C94D8130EF4E095E7FB0C94D21388
:1025D000E92F0E94FA1358F3BA17620773078407AA
:1025E000950720F079F4A6F50C941C140EF4E095F0
:1025F0000B2EBA2FA02D0B01B90190010C01CA01BD
:10260000A0011124FF27591B99F0593F50F4503E67
:1026100068F11A16F040A22F232F342F4427585F59
:10262000F3CF469537952795A795F0405395C9F771
:102630007EF41F16BA0B620B730B840BBAF0915029
:10264000A1F0FF0FBB1F661F771F881FC2F70EC0C8
:10265000BA0F621F731F841F48F48795779567959B
:10266000B795F7959E3F08F0B0CF9395880F08F087
:102670009927EE0F9795879508950E94AE1308F459
:1026800081E008950E94021488F09F5798F0B92FB6
:102690009927B751B0F0E1F0660F771F881F991F97
:1026A0001AF0BA95C9F714C0B13091F00E941C1409
:1026B000B1E008950C941C14672F782F8827B85F19
:1026C00039F0B93FCCF3869577956795B395D9F7EF
:1026D0003EF490958095709561957F4F8F4F9F4FF9
:1026E0000895E89409C097FB3EF490958095709505
:1026F00061957F4F8F4F9F4F9923A9F0F92F96E94E
:10270000BB279395F695879577956795B795F111C2
:10271000F8CFFAF4BB0F11F460FF1BC06F5F7F4F5F
:102720008F4F9F4F16C0882311F096E911C0772371
:1027300021F09EE8872F762F05C0662371F096E87A
:10274000862F70E060E02AF09A95660F771F881F49
:10275000DAF7880F9695879597F90895990F0008ED
:10276000550FAA0BE0E8FEEF16161706E807F90763
:10277000C0F012161306E407F50798F0621B730BFE
:10278000840B950B39F40A2661F0232B242B252B7F
:1027900021F408950A2609F4A140A6958FEF811D22
:1027A000811D089597F99F6780E870E060E00895C3
:1027B0009FEF80EC089500240A9416161706180659
:1027C0000906089500240A94121613061406050635
:1027D0000895092E0394000C11F4882352F0BB0FC6
:1027E00040F4BF2B11F460FF04C06F5F7F4F8F4F29
:1027F0009F4F089557FD9058440F551F59F05F3F64
:1028000071F04795880F97FB991F61F09F3F79F012
:1028100087950895121613061406551FF2CF469594
:10282000F1DF08C0161617061806991FF1CF869516
:102830007105610508940895E894BB2766277727FA
:10284000CB0197F908950E94AE1308F48FEF089515
:102850000E943B140C94E9130E94DB1338F00E9491
:10286000E21320F0952311F00C94D2130C94D8139A
:1028700011240C941D140E94FA1370F3959FC1F358
:10288000950F50E0551F629FF001729FBB27F00D1E
:10289000B11D639FAA27F00DB11DAA1F649F662773
:1028A000B00DA11D661F829F2227B00DA11D621FC2
:1028B000739FB00DA11D621F839FA00D611D221F7C
:1028C000749F3327A00D611D231F849F600D211D60
:1028D000822F762F6A2F11249F5750409AF0F1F0E3
:1028E00088234AF0EE0FFF1FBB1F661F771F881F4C
:1028F00091505040A9F79E3F510580F00C94D2139F
:102900000C941D145F3FE4F3983ED4F386957795BD
:102910006795B795F795E7959F5FC1F7FE2B880FF1
:10292000911D9695879597F908950E94AE13880B8F
:10293000990B089581E090E0F8940C949F14F8941A
:02294000FFCFC7
:102942000804080400401454004010500000000025
:1029520034010701F606DD000001ED00DE00000093
:102962000000A90409043604F60467044504590466
:1029720000000000BB050904F606F506A906A70536
:102982008E056F050D0A00566172616C20646573D5
:1029920063656E646F00566172616C204465736397
:1029A200656E646F21200A005245534554200A0087
:1029B20073616C766172206465736369646100455A
:1029C2006C657661646F722050726F6E746F005323
:1029D20075626964612053616C7661200A005465F6
:1029E200636C65206465736365720053616C766124
:1029F2006E646F2053756269646100446573636934
:102A020064612053616C766100446573636964613B
:102A12002053616C766121200A0073616C766172C9
:102A22002073756269646100456C657661646F72DA
:102A32002E706F736963616F417475616C203D2004
:102A42000053616C76616E646F20446573636964E0
:102A5200610042726F776E4F7574204465746563CE
:102A620074656421200A00536176656421200A009E
:102A72004C6967616E646F200A00566172616C2056
:102A8200656D20626169786F00566172616C2065C4
:102A92006D20626169786F200A005465636C65205D
:102AA200737562697200566172616C20656D206394
:102AB200696D6100566172616C20656D2063696D9C
:102AC20061200A005465636C6520524553455400E9
:102AD2005245534554204641425249434100456CB8
:102AE200657661646F726573204861726168005037
:102AF20072657373696F6E65205265736574004603
:102B0200696D20737562696461200A00456C65769F
:102B120061646F722E706F736963616C4174756169
:102B22006C203D2000766F6C746167655F7261771F
:102B3200203D20006E616E00696E66006F76660051
:102B4200536F6272656361726761007465636C657D
:102B52002064657363657200566172616C20656DF5
:102B6200626169786F0046696D20646573636964A8
:102B720061200A00566172616C20537562696E644D
:102B82006F00566172616C20537562696E646F21C9
:042B9200200A000015
:00000001FF
