:100000000C9462000C945E0B0C94370B0C948A00D9
:100010000C948A000C948A000C948A000C948A0038
:100020000C948A000C94DD0B0C948A000C948A00CA
:100030000C948A000C948A000C948A000C948A0018
:100040000C94ED0A0C948A000C94AB0B0C94850B69
:100050000C948A000C948A000C948A000C948A00F8
:100060000C94CE090C948A000000000024002700A4
:100070002A0000000000250028002B0000000000DE
:1000800023002600290004040404040404040202DA
:100090000202020203030303030301020408102007
:1000A0004080010204081020010204081020000012
:1000B0000008000201000003040700000000000027
:1000C00000004F0C11241FBECFEFD8E0DEBFCDBF24
:1000D00012E0A0E0B1E0E4E2F2E202C005900D928D
:1000E000A234B107D9F723E0A2E4B2E001C01D9227
:1000F000A83EB207E1F710E0C2E6D0E004C02197C5
:10010000FE010E940511C136D107C9F70E94BA0C41
:100110000C9410110C9400002091A602260F332796
:10012000331F21323105ECF42091F102FC0190E003
:1001300080E0243069F082E00895A091A602219128
:10014000AC014C575D4FA40FB52FB11D2C930196F8
:10015000861798F38091A602680F6093A60280E04C
:10016000089581E00895089508950895E091820228
:1001700080918102E81730F4F0E0EF59FD4F808163
:1001800090E008958FEF9FEF089590918202809103
:1001900081022FEF3FEF981748F4E92FF0E0EF5975
:1001A000FD4F208130E09F5F90938202C901089546
:1001B0008091810290918202891B990B0895CF92C0
:1001C000DF92EF92FF920F931F93CF93DF937C0107
:1001D000CB018A012091F702222389F0EB016B0108
:1001E000C40ED51ECC15DD0569F06991D701ED91DE
:1001F000FC910190F081E02DC7010995F3CF642FA8
:100200000E948C00C801DF91CF911F910F91FF9048
:10021000EF90DF90CF900895CF93DF931F92CDB7EB
:10022000DEB769832091F7022223F9F020911A03A7
:10023000203258F021E030E0FC013383228390E04B
:1002400080E00F90DF91CF9108958091F802E82F20
:10025000F0E0E750FD4F998190838F5F8093F80223
:1002600080931A0381E090E0ECCF61E0CE0101962B
:100270000E948C00F7CF833081F028F4813099F010
:100280008230A9F008958730A9F08830C9F0843011
:10029000B1F4809180008F7D03C0809180008F77C2
:1002A00080938000089584B58F7784BD089584B5C8
:1002B0008F7DFBCF8091B0008F778093B000089541
:1002C0008091B0008F7DF9CFCF93DF93282F30E05E
:1002D000F901E255FF4F8491F901E656FF4FD491A1
:1002E000F901EA57FF4FC491CC23A1F081110E947C
:1002F0003B01EC2FF0E0EE0FFF1FE458FF4FA591FC
:10030000B491EC91ED2381E090E009F480E0DF917D
:10031000CF91089580E090E0FACF1F93CF93DF93C1
:10032000282F30E0F901E255FF4F8491F901E6569C
:10033000FF4FD491F901EA57FF4FC491CC23A9F0A4
:10034000162F81110E943B01EC2FF0E0EE0FFF1FF2
:10035000EE58FF4FA591B4918FB7F894EC9111111D
:1003600008C0D095DE23DC938FBFDF91CF911F9122
:100370000895DE2BF8CF1092F10281E08093F00215
:100380001092CB0261E082E10E948D0161E083E185
:100390000E948D01E9EBF0E080818E7F8083808177
:1003A0008D7F808388E48093B80085E48093BC00CF
:1003B0000895CF93DF9391E0909383028823B9F05F
:1003C000C091B800D091BA008091BC008A7B809324
:1003D000BC0060E082E10E948D0160E083E10E9448
:1003E0008D010E94BB01D093BA00C093B800DF9189
:1003F000CF910895CF93DF9390E0FC01E656FF4F35
:1004000024918A579F4FFC0184918823D1F090E07A
:10041000880F991FFC01E859FF4FA591B491FC0189
:10042000EE58FF4FC591D49161110EC09FB7F8945B
:100430008C91E22FE0958E238C932881E223E88330
:100440009FBFDF91CF9108958FB7F894EC91E22B85
:10045000EC938FBFF6CF1F93CF93DF93182FEB0151
:1004600061E00E94FA01209739F460E0812FDF916A
:10047000CF911F910C948D01E12FF0E0E255FF4FD9
:10048000E491E33039F148F4E130B9F0E230E9F0D9
:10049000C038D10554F361E0E9CFE73029F1E83005
:1004A00059F1E430A9F78091800080628093800048
:1004B000D0938B00C0938A0004C084B5806884BD4B
:1004C000C7BDDF91CF911F91089584B5806284BD2F
:1004D000C8BDF7CF80918000806880938000D09362
:1004E0008900C0938800EDCF8091B0008068809330
:1004F000B000C093B300E5CF8091B00080628093DC
:10050000B000C093B400DDCF8E3008F08E508770FD
:10051000806480937C0080917A00806480937A006C
:1005200080917A0086FDFCCF8091780090917900CF
:1005300008953FB7F89480915D0290915E02A0917A
:100540005F02B091600226B5A89B05C02F3F19F04D
:100550000196A11DB11D3FBFBA2FA92F982F882743
:10056000BC01CD01620F711D811D911D42E0660F1E
:10057000771F881F991F4A95D1F70895CF92DF9270
:10058000EF92FF920F931F93CF93DF93D0911A03B3
:1005900081E0D13208F09CC0C09119030E949902F9
:1005A0006B017C018091F10281116CC082E080932B
:1005B000F10281E08093F0028FEF8093EF021092BE
:1005C000EE02D093ED02A9EFB2E0EDECF2E080E0B4
:1005D000D8138DC01092CC028091CC02CC0FC82BC6
:1005E000C093CC028091CB02813009F084C010927C
:1005F000CB020E9499026B017C018091CC02809316
:10060000BB008091F3029091F402A091F502B091A9
:10061000F602892B8A2B8B2BA1F00E949902009164
:10062000F3021091F4022091F5023091F6026C1958
:100630007D098E099F09061717072807390708F44F
:1006400042C08091BC0083FDD8CF85EC8093BC0074
:100650000E9499026B017C018091F102823009F4C1
:100660004CC08091EF028F3F09F469C08091EF0286
:10067000803209F466C08091EF02803309F463C0D0
:1006800084E026C08091F3029091F402A091F502DB
:10069000B091F602892B8A2B8B2B09F483CF0E9411
:1006A00099020091F3021091F4022091F502309129
:1006B000F6026C197D098E099F090617170728078E
:1006C000390708F06FCF8091F2020E94D90185E0CE
:1006D0001092F80210921A031092F702DF91CF9154
:1006E0001F910F91FF90EF90DF90CF9008959D9113
:1006F00091938F5F6DCF85EEA9CF8091F30290919A
:10070000F402A091F502B091F602892B8A2B8B2B73
:1007100009F4A2CF0E9499020091F3021091F40211
:100720002091F5023091F6026C197D098E099F091E
:10073000061717072807390708F08ECFC4CF80E0C7
:10074000C7CF82E0C5CF83E0C3CF8F929F92AF9295
:10075000BF92CF92DF92EF92FF924B015C010E9419
:1007600099026B017C010E9499026C197D098E0926
:100770009F09683E734081059105A8F321E0821A24
:100780009108A108B10888EEC80E83E0D81EE11CCC
:10079000F11C81149104A104B10429F7FF90EF909A
:1007A000DF90CF90BF90AF909F908F900895089565
:1007B000AF92BF92CF92DF92EF92FF920F931F936F
:1007C000CF93DF936C017B018B01040F151FEB01AD
:1007D0005E01AE18BF08C017D10759F06991D60164
:1007E000ED91FC910190F081E02DC6010995892BD6
:1007F00079F7C501DF91CF911F910F91FF90EF9095
:10080000DF90CF90BF90AF900895FC01538D448D41
:10081000252F30E0842F90E0821B930B541710F0AB
:10082000CF96089501970895FC01918D828D9817B8
:1008300061F0A28DAE0FBF2FB11D5D968C91928D90
:100840009F5F9F73928F90E008958FEF9FEF0895C1
:10085000FC01918D828D981731F0828DE80FF11D8A
:10086000858D90E008958FEF9FEF0895FC01918DA5
:10087000228D892F90E0805C9F4F821B91098F739E
:100880009927089587E293E00E94360421E0892B9E
:1008900009F420E0822F089580E090E0892B29F070
:1008A0000E94420481110C9400000895FC01A48D63
:1008B000A80FB92FB11DA35ABF4F2C91848D90E082
:1008C00001968F739927848FA689B7892C93A08965
:1008D000B1898C91837080648C93938D848D9813EF
:1008E00006C00288F389E02D80818F7D8083089582
:1008F000EF92FF920F931F93CF93DF93EC0181E070
:10090000888F9B8D8C8D98131AC0E889F989808116
:1009100085FF15C09FB7F894EE89FF896083E88949
:10092000F98980818370806480839FBF81E090E03B
:10093000DF91CF911F910F91FF90EF900895F62EC8
:100940000B8D10E00F5F1F4F0F731127E02E8C8D62
:100950008E110CC00FB607FCFACFE889F9898081A7
:1009600085FFF5CFCE010E945604F1CFEB8DEC0F41
:10097000FD2FF11DE35AFF4FF0829FB7F8940B8FC4
:10098000EA89FB8980818062CFCFCF93DF93EC012E
:10099000888D8823B9F0AA89BB89E889F9898C9167
:1009A00085FD03C0808186FD0DC00FB607FCF7CF23
:1009B0008C9185FFF2CF808185FFEDCFCE010E9423
:1009C0005604E9CFDF91CF910895FC0123812223C2
:1009D000F1F0262F6181609562236083828191E02E
:1009E0009093F702809319031092F80210921A0361
:1009F0008BE193E00E940C010E94BE02282F30E0A0
:100A000081E090E0232B11F090E080E0089530E049
:100A100020E0F6CFEF92FF920F931F93CF938C01BC
:100A2000FC0184E0C0E0262F30E060FF02C0958921
:100A3000C92BB90175956795815031968111F3CF16
:100A4000413011F4F8014489F8016585C62BC42BA7
:100A50007801FEE0EF0EF11CF80162896C2BC701F2
:100A60000E94E504F801628960956C23C701CF916B
:100A70001F910F91FF90EF900C94E5040F931F933B
:100A8000CF93DF93062F0F70423041F440E0602F88
:100A9000DF91CF911F910F910C940A05142FEC0157
:100AA00070E084E0759567958A95E1F7CE010E9424
:100AB0000A05412F602FCE01EBCFFC0184858823EE
:100AC000A1F0218532852115310521F4611107C07E
:100AD000158606C021303105D9F76111F9CF858718
:100AE0006585CF010E960C94E504089521E001C0C0
:100AF000220F6A95EAF7DC011C962C931C971A9634
:100B00005C934E931997ED91FC910484F585E02D4B
:100B100060E00994DC01ED91FC910684F785E02DFD
:100B200041E0099581E090E00895DC01ED91FC91B0
:100B30000684F785E02D40E009940F931F93CF932F
:100B4000DF93CDB7DEB728970FB6F894DEBF0FBEA0
:100B5000CDBF009104011091050120910601309153
:100B600007010D831E832F833887009108011091A0
:100B7000090120910A0130910B0109831A832B830B
:100B80003C839091D603691710F06FEF690F262F01
:100B900030E04091D7032C0F3D1FF901403199F40B
:100BA000943089F46181680F60688FEC93E0289637
:100BB0000FB6F894DEBF0FBECDBFDF91CF911F916E
:100BC0000F910C9495056581EECF61E00E9495052B
:100BD0008BE39FE10197F1F708950F931F93CF9354
:100BE000DF93EC01423018F08C8188608C834F8356
:100BF0006887222329F0413019F48C8184608C832A
:100C000064E670E080E090E00E94A5036C8164FDE2
:100C100057C0E881F9810684F785E02D42E063E062
:100C2000CE0109958BE496E40197F1F7E881F9810B
:100C30000684F785E02D42E063E0CE01099503E5E7
:100C400012E0C8010197F1F7E881F9810684F78580
:100C5000E02D42E063E0CE010995C8010197F1F76C
:100C6000E881F9810684F785E02D42E062E0CE015B
:100C70000995C8010197F1F76C816062CE010E946D
:100C800095058BEE90E00197F1F784E08D836CE0A1
:100C9000CE010E949505CE010E94E50582E08E837B
:100CA00066E0CE010E949505E881F9810484F5850E
:100CB000E02D6FEFCE01DF91CF911F910F9109943D
:100CC0006062CE010E9495058BE496E40197F1F7EE
:100CD0006C816062CE010E94950503E512E0C801B7
:100CE0000197F1F76C816062CE010E949505C1CF3A
:100CF000EF92FF920F931F93CF93DF93EC01062F98
:100D0000F42EE22E8B85888B109282021092810243
:100D10001092F80210921A030E94BB0183EB90E03C
:100D20009093A5028093A40284EB90E09093A90293
:100D30008093A802888911E01093F7028093190329
:100D40000E94BE0281111CC0198B8BE193E00E94AE
:100D5000C5008E878989882339F01F861C8260E050
:100D6000CE010E960E94E5042E2D4F2D602FCE0150
:100D7000DF91CF911F910F91FF90EF900C94ED05B3
:100D8000198AE8CF08950895089590E080E00895C5
:100D90002FB7F8948091590290915A02A0915B026A
:100DA000B0915C022FBF409142025091430260918A
:100DB000440270914502841B950BA60BB70B459717
:100DC000A105B10508F464C02FB7F89480915902C9
:100DD00090915A02A0915B02B0915C022FBF809368
:100DE000420290934302A0934402B0934502809143
:100DF000C9038823A1F08091CE03853009F448C04F
:100E00008091CE03833009F043C08091CA03909152
:100E1000CB0301969093CB038093CA0308958091EE
:100E2000CE038530E9F08091CE038630C9F0809101
:100E3000CE03833049F58091CA039091CB0301968C
:100E40009093CB038093CA032091CA033091CB03C4
:100E50008091CC039091CD03281739078CF418C0EA
:100E60008091CA039091CB0301979093CB03809319
:100E7000CA038091CA039091CB031816190644F057
:100E800081E08093530208958091CE03843099F2DB
:100E900008958F929F92AF92BF920F931F93CF931B
:100EA000DF93CDB7DEB7A1970FB6F894DEBF0FBEC4
:100EB000CDBF19A2423008F44AE08E010F5D1F4FEA
:100EC000842E912CB12CA12CA50194010E94E31039
:100ED000E62FB901CA01EA3044F5E05DD801EE938E
:100EE0008D01232B242B252B79F790E080E01097A0
:100EF00069F0FD0101900020E9F73197AF014A1B2D
:100F00005B0BBD018FEC93E00E94D803A1960FB656
:100F1000F894DEBF0FBECDBFDF91CF911F910F912F
:100F2000BF90AF909F908F900895E95CD7CFFC0160
:100F300001900020E9F73197AF01481B590BBC0124
:100F40008FEC93E00C94D803CF93DF93C4ECD3E001
:100F500085E08A8761E08FEC93E00E945D058FEC6D
:100F600093E00E94E50561E080E00E949D0584E435
:100F700091E00E94970770E060E086E00E942B02FB
:100F80006AEA70E085E00E942B0281E090E099839C
:100F90008883DF91CF910895CF92DF92EF92FF92F5
:100FA000CF93DF936C01990FEE08FF08F7FE19C08D
:100FB0006DE28FEC93E00E948A05EC0166277727AB
:100FC000CB016C197D098E099F094AE00E944907EF
:100FD0008C0F9D1FDF91CF91FF90EF90DF90CF900E
:100FE00008954AE0C701B601DF91CF91FF90EF90DD
:100FF000DF90CF900C94490785ED8093BC008091E1
:10100000F3029091F402A091F502B091F6020796D6
:10101000A11DB11D23E0B695A795979587952A95B3
:10102000D1F72091BC0024FD03C01092F102089575
:101030004091F3025091F4026091F5027091F60232
:10104000452B462B472B69F30097A105B10541F0CD
:1010500025E32A95F1F700000197A109B109E1CF35
:101060008091F2020C94D9010E940B110C94D510BE
:10107000CF93DF9361E08FEC93E00E945D058FECEE
:1010800093E00E94E50560E080E00E949D0581EF0D
:1010900091E00E94970761E080E00E949D0583E552
:1010A00091E00E94970770E060E086E00E942B02CA
:1010B00070E060E085E00E942B02C4ECD3E01F8268
:1010C0001E82198618866E817F8190E080E00E94E2
:1010D00036086885798581E090E00E943608A895F9
:1010E000DF91CF9108958091C903882309F450C0FE
:1010F00070E060E086E00E942B0270E060E085E036
:101100000E942B021092C5031092C4038FEC93E04F
:101110000E94E50560E080E00E949D0582E691E086
:101120000E94970761E080E00E949D0582E791E0C0
:101130000E94970760E08AE00E949D058091CA03A3
:101140009091CB030E94CC078091CA039091CB036E
:101150009093CD038093CC0384E08093CE03609181
:10116000CA037091CB0390E080E00E943608609142
:10117000CC037091CD0381E090E00E94360860912D
:10118000CE0382E090E00E9436081092C9030895D1
:1011900061E08FEC93E00E945D058FEC93E00E948C
:1011A000E50560E080E00E949D058FE791E00E94E8
:1011B000970781E08093C9036AEA70E086E00E94A5
:1011C0002B0270E060E085E00E942B0281E090E05D
:1011D0009093C5038093C40368EE73E080E090E0D1
:1011E0000C94A5038091C903882309F450C070E0D2
:1011F00060E086E00E942B0270E060E085E00E94E3
:101200002B021092C5031092C4038FEC93E00E944E
:10121000E50560E080E00E949D058FE891E00E9476
:10122000970761E080E00E949D058DE991E00E94B2
:10123000970760E08AE00E949D058091CA03909123
:10124000CB030E94CC071092CD031092CC031092D6
:10125000CD031092CC0382E08093CE036091CA0349
:101260007091CB0390E080E00E9436086091CC033F
:101270007091CD0381E090E00E9436086091CE032A
:1012800082E090E00E9436081092C903089561E060
:101290008FEC93E00E945D058FEC93E00E94E505E2
:1012A00060E080E00E949D058BEA91E00E94970734
:1012B00081E08093C9031092CB031092CA0310926D
:1012C000CD031092CC0385E08093CE036091CA03D6
:1012D0007091CB0390E080E00E9436086091CC03CF
:1012E0007091CD0381E090E00E9436086091CE03BA
:1012F00082E090E00E94360881E090E09093C50380
:101300008093C40370E060E086E00E942B026AEAEA
:1013100070E085E00E942B0268EE73E080E090E0D0
:101320000C94A50380E10E9484028839934044F420
:1013300061E080E10E94FA0161E080E10C948D019E
:1013400060E080E10E94FA0180E10E948402893E0F
:1013500093401CF184E08093CE036091CA037091A6
:10136000CB0390E080E00E9436086091CC0370913E
:10137000CD0381E090E00E9436086091CE0382E0C8
:1013800090E00E94360861E08AE00E949D058CEBA7
:1013900091E00E9484020C94CC0708951F920F9252
:1013A0000FB60F9211242F933F934F935F936F9338
:1013B0007F938F939F93AF93BF93EF93FF9380910E
:1013C000B900887F803609F44AC0F0F5883209F404
:1013D000A7C018F5803109F49BC0B8F4882309F43C
:1013E000F9C0883009F494C0FF91EF91BF91AF919B
:1013F0009F918F917F916F915F914F913F912F912D
:101400000F900FBE0F901F901895883109F488C077
:10141000803251F78093EF0214C0803409F49DC0EC
:1014200040F48033B9F38833F9F68093EF0285EC0A
:10143000B0C0803509F485C0883509F496C0883479
:1014400099F60E94FC07D0CF883909F48CC038F592
:10145000883729F050F4883611F0803729F683E078
:101460008093F1021092CA0257C0883809F47BC0F9
:10147000803919F0803809F0B7CF8091CA028032E4
:1014800008F071C0E091CA0281E08E0F8093CA0219
:101490008091BB00F0E0E655FD4F80833DC0803B6E
:1014A00039F0E0F4803A09F479C0883A09F09CCF29
:1014B00084E08093F1021092A7021092A602E091BC
:1014C000A402F091A50209958091A60281110FC096
:1014D00081E08093A6021092840209C0803C09F446
:1014E000A6CF883C09F4A3CF883B09F07DCFE091DB
:1014F000A70281E08E0F8093A702F0E0EC57FD4F2A
:1015000080818093BB009091A7028091A60229C0A0
:101510008091CC028093BB0085EC8093BC0064CFAB
:101520009091EE028091ED02981758F5E091EE024D
:1015300081E08E0F8093EE02F0E0E353FD4F808157
:10154000E9CFE091EE0281E08E0F8093EE02809170
:10155000BB00F0E0E353FD4F80839091EE02809159
:10156000ED029817C8F285E8D8CFE091EE0281E04D
:101570008E0F8093EE028091BB00F0E0E353FD4FAD
:1015800080838091F00281115CCF81E08093CB0257
:1015900084EA8093BC001092F10226CF85EC809300
:1015A000BC001092F1028091CA02803230F4E091C6
:1015B000CA02F0E0E655FD4F10826091CA0270E069
:1015C000E091A802F091A9028AEA92E009951092AE
:1015D000CA020ACF1092EF0234CF1F920F920FB6B9
:1015E0000F9211242F933F938F939F93AF93BF93A9
:1015F0008091590290915A02A0915B02B0915C02D5
:101600003091580223E0230F2D3758F50196A11D84
:10161000B11D209358028093590290935A02A093CF
:101620005B02B0935C0280915D0290915E02A0919A
:101630005F02B09160020196A11DB11D80935D0211
:1016400090935E02A0935F02B0936002BF91AF914E
:101650009F918F913F912F910F900FBE0F901F90F0
:10166000189526E8230F0296A11DB11DD2CF1F9217
:101670000F920FB60F9211242F933F934F935F93C6
:101680006F937F938F939F93AF93BF93EF93FF934A
:10169000E0910201F09103010995FF91EF91BF9153
:1016A000AF919F918F917F916F915F914F913F91FA
:1016B0002F910F900FBE0F901F9018951F920F92B1
:1016C0000FB60F9211242F933F934F935F936F9315
:1016D0007F938F939F93AF93BF93EF93FF93E0918B
:1016E0000001F09101010995FF91EF91BF91AF9138
:1016F0009F918F917F916F915F914F913F912F912A
:101700000F900FBE0F901F9018951F920F920FB65B
:101710000F9211242F933F934F935F936F937F9377
:101720008F939F93AF93BF93EF93FF9387E293E0E1
:101730000E945604FF91EF91BF91AF919F918F91BD
:101740007F916F915F914F913F912F910F900FBEBD
:101750000F901F9018951F920F920FB60F921124A1
:101760002F938F939F93EF93FF93E0913703F09123
:1017700038038081E0913D03F0913E0382FD1BC060
:101780009081809140038F5F8F7320914103821776
:1017900041F0E0914003F0E0E95DFC4F958F8093CC
:1017A0004003FF91EF919F918F912F910F900FBE6A
:1017B0000F901F9018958081F4CF1F920F920FB653
:1017C0000F9211242F933F934F935F936F937F93C7
:1017D0008F939F93AF93BF93EF93FF9380914C02AE
:1017E00090914D028093B20080914F0290915002EF
:1017F000A0915102B09152020196A11DB11D80939A
:101800004F0290935002A0935102B09352028091E4
:101810004F0290915002A0915102B091520240911A
:1018200048025091490260914A0270914B0284171C
:101830009507A607B70710F180914E0281111EC0CF
:1018400081E080934E0280914F0290915002A091CE
:101850005102B0915202841B950BA60BB70B8093DB
:101860004F0290935002A0935102B0935202E09124
:101870004602F0914702099510924E02FF91EF91B6
:10188000BF91AF919F918F917F916F915F914F9198
:101890003F912F910F900FBE0F901F901895EBE185
:1018A000F3E01382128288EE93E0A0E0B0E084833C
:1018B0009583A683B78320E131E031832083E7E27B
:1018C000F3E01382128284839583A683B78382E236
:1018D00091E09183808385EC90E09587848784EC08
:1018E00090E09787868780EC90E0918B808B81ECED
:1018F00090E0938B828B82EC90E0958B848B86ECCE
:1019000090E0978B868B118E128E138E148EEFECD7
:10191000F3E01382128284E391E091838083108A42
:101920008FEF87871686118A87E28387148615864C
:101930001286118684E0828B82E0838B81E0848B27
:1019400080E1858B80E2868B80E4878B80E8808FC6
:1019500050E040E063E0CF010E947605E4ECF3E064
:1019600011821082138212821582178216821186CA
:1019700010860895789484B5826084BD84B58160B2
:1019800084BD85B5826085BD85B5816085BD80914A
:101990006E00816080936E001092810080918100C2
:1019A00082608093810080918100816080938100BA
:1019B000809180008160809380008091B10084607C
:1019C0008093B1008091B00081608093B0008091DD
:1019D0007A00846080937A0080917A00826080939C
:1019E0007A0080917A00816080937A0080917A00F9
:1019F000806880937A001092C100E0913703F091E3
:101A0000380382E08083E0913303F0913403108245
:101A1000E0913503F09136038FEC808310923F0301
:101A2000E0913B03F0913C0386E08083E091390331
:101A3000F0913A03808180618083E0913903F091D5
:101A40003A03808188608083E0913903F0913A0302
:101A5000808180688083E0913903F0913A0380812E
:101A60008F7D808320E042E060E18FEC93E00E9474
:101A700078068FEC93E00E94E50560E083E00E9429
:101A80009D0560E08FEC93E00E945D051092C80315
:101A900090E080E00E94CD1090E09093CB03809383
:101AA000CA0381E090E00E94CD1090E09093CD03B6
:101AB0008093CC0382E090E00E94CD108093CE030F
:101AC00061E085E00E94FA0161E086E00E94FA018F
:101AD00060E083E00E94FA0160E080E00E94FA0189
:101AE00060E084E00E94FA0160E08AE00E94FA016E
:101AF00060E08BE00E94FA0160E08CE00E94FA0155
:101B000060E08EE00E94FA0160E082E00E94FA014B
:101B100088E199E20FB6F894A895809360000FBE13
:101B20009093600088EC96E090930101809300010F
:101B3000809169008C7F826080936900E89A8AE0D6
:101B400090E0A0E0B0E08093480290934902A09317
:101B50004A02B0934B0282E999E090934702809346
:101B60004602809170008E7F809370008091B0005B
:101B70008C7F8093B0008091B100877F8093B1000B
:101B80008091B6008F7D8093B600809170008D7F2C
:101B9000809370008091B10084608093B100809147
:101BA000B1008C7F8093B10086E090E090934D026D
:101BB00080934C0210924F021092500210925102E8
:101BC0001092520210924E0280914C0290914D025E
:101BD0008093B2008091700081608093700000E07B
:101BE00010E0C1E0D6E0EE24E394F12C8091C8032C
:101BF00081116FC070E060E086E00E942B0270E00F
:101C000060E085E00E942B0260E08FEC93E00E9490
:101C10005D058FEC93E00E94E50580E00E94640181
:101C2000019709F049C080E00E9464010197D9F34F
:101C3000C093C80370E060E086E00E942B0270E071
:101C400060E085E00E942B0261E08FEC93E00E944F
:101C50005D058091CE03863081F460E080E00E94D3
:101C60009D0582EC91E00E94970761E080E00E9470
:101C70009D0581ED91E00E9497078091CE0384300D
:101C800081F460E080E00E949D058DED91E00E946E
:101C9000970761E080E00E949D0582E791E00E9445
:101CA00097078091CE03811107C061E00E949D05D6
:101CB0008BEE91E00E949707A8950115110509F494
:101CC00095CF0E944204882309F490CF0E9400001F
:101CD0008DCF8091C803813079F7E091CE03E83051
:101CE00058F70E2E000CFF0BE858F14F0C9405111D
:101CF000800EAC0E330F6C0FC70FF30F4D10991001
:101D000070E060E086E00E942B0270E060E085E019
:101D10000E942B0280E00E946401019739F480E068
:101D20000E9464010197D9F31092C8038AE00E94CF
:101D30006401019709F0C0CF8AE00E946401019715
:101D4000D9F30E943808C093CE036091CE0382E09D
:101D500090E00E943608B0CF8AE00E9464010197AB
:101D600009F065C02FB7F8948091590290915A02FA
:101D7000A0915B02B0915C022FBF809354029093BC
:101D80005502A0935602B09357028AE00E94640164
:101D9000019709F04CC02FB7F894809159029091A7
:101DA0005A02A0915B02B0915C022FBF4091540295
:101DB000509155026091560270915702841B950B09
:101DC000A60BB70B88389341A105B105F0F261E08D
:101DD0008FEC93E00E945D058FEC93E00E94E50597
:101DE00060E080E00E949D0587EF91E00E949707E8
:101DF00060ED77E080E090E00E94A50360E080E085
:101E00000E949D0585E092E00E94970761E080E0D6
:101E10000E949D0586E192E00E9497071092CE03F2
:101E20006091CE0382E090E00E943608AECF80E061
:101E30000E946401019739F480E00E9464010197D7
:101E4000D9F31092C8038CE00E946401019709F055
:101E500033CF8CE00E9464010197D9F31092C9033B
:101E60000E94F20829CF8BE00E946401019791F44F
:101E70008BE00E9464010197D9F383E08093CE0345
:101E80006091CE0382E090E00E9436081092C90370
:101E90000E9473088AE00E946401019779F48AE045
:101EA0000E9464010197D9F30E943808C093CE03C1
:101EB0006091CE0382E090E00E94360880E00E94AC
:101EC0006401019709F0F8CE80E00E946401019757
:101ED000D9F31092C803F0CE80915302882339F1D0
:101EE0001092530270E060E086E00E942B0270E0E6
:101EF00060E085E00E942B021092C5031092C4039B
:101F00008FEC93E00E94E50560E080E00E949D0573
:101F10008DED91E00E94970761E080E00E949D05B1
:101F200082E791E00E94970784E08093CE0380913E
:101F3000C903882361F08BE00E946401019739F4A2
:101F40008BE00E9464010197D9F30E9473088AE034
:101F50000E946401019779F48AE00E94640101976C
:101F6000D9F30E943808C093CE036091CE0382E07B
:101F700090E00E94360880E00E946401019709F019
:101F80009BCE80E00E9464010197D9F3A2CF84E048
:101F90000E946401019739F484E00E946401019772
:101FA000D9F30E94A4078AE00E946401019779F4A2
:101FB0008AE00E9464010197D9F30E943808C09317
:101FC000CE036091CE0382E090E00E94360880E06C
:101FD0000E946401019709F06FCE80E00E946401C5
:101FE0000197D9F376CF80915302882331F1109273
:101FF000530270E060E086E00E942B0270E060E037
:1020000085E00E942B021092C5031092C4038FEC4E
:1020100093E00E94E50560E080E00E949D0586E275
:1020200092E00E94970761E080E00E949D0581EDAB
:1020300091E00E949707D093CE038091C903882333
:1020400061F08CE00E946401019739F48CE00E94F9
:1020500064010197D9F30E94F2088AE00E946401AA
:10206000019779F48AE00E9464010197D9F30E94F4
:102070003808C093CE036091CE0382E090E00E94C6
:10208000360880E00E946401019709F015CE80E0D7
:102090000E9464010197D9F31CCF83E00E94640180
:1020A000019739F583E00E9464010197D9F383E039
:1020B0008093CE0361E08FEC93E00E945D058FEC8E
:1020C00093E00E94E50561E080E00E949D0584E3C5
:1020D00092E00E9497076AEA70E086E00E942B0275
:1020E00070E060E085E00E942B02F092C503E09270
:1020F000C4038AE00E946401019779F48AE00E9497
:1021000064010197D9F30E943808C093CE0360910F
:10211000CE0382E090E00E94360880E00E946401D5
:10212000019709F0C9CD80E00E9464010197D9F3BD
:10213000D0CE84E00E946401019779F484E00E948B
:1021400064010197D9F30E94A407D093CE03609154
:10215000CE0382E090E00E9436088AE00E9464018B
:10216000019779F48AE00E9464010197D9F30E94F3
:102170003808C093CE036091CE0382E090E00E94C5
:10218000360880E00E946401019709F095CD80E057
:102190000E9464010197D9F39CCEF999FECF92BDBC
:1021A00081BDF89A992780B50895262FF999FECF19
:1021B0001FBA92BD81BD20BD0FB6F894FA9AF99A64
:1021C0000FBE01960895A1E21A2EAA1BBB1BFD01AA
:1021D0000DC0AA1FBB1FEE1FFF1FA217B307E40706
:1021E000F50720F0A21BB30BE40BF50B661F771F5E
:1021F000881F991F1A9469F760957095809590953E
:102200009B01AC01BD01CF010895EE0FFF1F0590AA
:10221000F491E02D099481E090E0F8940C94101171
:04222000F894FFCF60
:10222400D703D703004014540040105000000000AE
:102234000C01DF00C506B500D800C500B6000000DB
:1022440000007804D8030504C504360414042804E3
:10225400000000008A05D803C506C4067806760582
:102264005D053E05566172616C2064657363656E3D
:10227400646F0073616C7661722064657363696472
:102284006100456C657661646F722050726F6E7484
:102294006F005465636C65206465736365720053F5
:1022A400616C76616E646F20537562696461004489
:1022B4006573636964612053616C76610073616C5A
:1022C400766172207375626964610053616C766132
:1022D4006E646F204465736369646100536176655D
:1022E4006400566172616C20656D20626169786F6B
:1022F400005465636C65207375626972005661727F
:10230400616C20656D2063696D61005465636C6563
:1023140020524553455400524553455420464142AA
:102324005249434100456C657661646F7265732060
:102334004861726168005072657373696F6E6520DD
:10234400526573657400566172616C20656D6261DB
:1023540069786F00566172616C20537562696E64AE
:022364006F0008
:00000001FF
