:100000000C9462000C940E0D0C94E70C0C948A0076
:100010000C948A000C948A000C948A000C948A0038
:100020000C948A000C948D0D0C948A000C948A0018
:100030000C948A000C948A000C948A000C948A0018
:100040000C949D0C0C948A000C945B0D0C94350D53
:100050000C948A000C948A000C948A000C948A00F8
:100060000C947E0B0C948A000000000024002700F2
:100070002A0000000000250028002B0000000000DE
:1000800023002600290004040404040404040202DA
:100090000202020203030303030301020408102007
:1000A0004080010204081020010204081020000012
:1000B0000008000201000003040700000000000027
:1000C0000000FF0D11241FBECFEFD8E0DEBFCDBF73
:1000D00013E0A0E0B1E0EAE5FAE202C005900D927B
:1000E000A633B107D9F724E0A6E3B3E001C01D921F
:1000F000A63EB207E1F710E0C2E6D0E004C02197C7
:10010000FE010E94E412C136D107C9F70E946A0EAF
:100110000C942B150C940000E5E2F4E0A089B18961
:1001200082E08C93A485B5851C92A685B7858FEC5B
:100130008C93108EA489B58986E08C93A289B389AB
:100140008C9180618C93A289B3898C9188608C9307
:10015000A289B3898C9180688C930288F389E02D01
:1001600080818F7D808308952091A403260F3327FB
:10017000331F21323105ECF42091EF03FC0190E0B4
:1001800080E0243069F082E00895A091A4032191D9
:10019000AC014E575C4FA40FB52FB11D2C930196A7
:1001A000861798F38091A403680F6093A40380E0FE
:1001B000089581E00895089508950895E0918003D9
:1001C00080917F03E81730F4F0E0E15AFC4F808122
:1001D00090E008958FEF9FEF0895909180038091B4
:1001E0007F032FEF3FEF981748F4E92FF0E0E15A33
:1001F000FC4F208130E09F5F90938003C9010895F8
:1002000080917F0390918003891B990B0895CF9271
:10021000DF92EF92FF920F931F93CF93DF937C01B6
:10022000CB018A012091F503222389F0EB016B01B8
:10023000C40ED51ECC15DD0569F06991D701ED918D
:10024000FC910190F081E02DC7010995F3CF642F57
:100250000E94B400C801DF91CF911F910F91FF90D0
:10026000EF90DF90CF900895CF93DF931F92CDB79B
:10027000DEB769832091F5032223F9F02091180459
:10028000203258F021E030E0FC013383228390E0FB
:1002900080E00F90DF91CF9108958091F603E82FD1
:1002A000F0E0E950FC4F998190838F5F8093F603D3
:1002B0008093180481E090E0ECCF61E0CE010196DC
:1002C0000E94B400F7CF833081F028F4813099F098
:1002D0008230A9F008958730A9F08830C9F08430C1
:1002E000B1F4809180008F7D03C0809180008F7772
:1002F00080938000089584B58F7784BD089584B578
:100300008F7DFBCF8091B0008F778093B0000895F0
:100310008091B0008F7DF9CFCF93DF93282F30E00D
:10032000F901E255FF4F8491F901E656FF4FD49150
:10033000F901EA57FF4FC491CC23A1F081110E942B
:100340006301EC2FF0E0EE0FFF1FE458FF4FA59183
:10035000B491EC91ED2381E090E009F480E0DF912D
:10036000CF91089580E090E0FACF1F93CF93DF9371
:10037000282F30E0F901E255FF4F8491F901E6564C
:10038000FF4FD491F901EA57FF4FC491CC23A9F054
:10039000162F81110E946301EC2FF0E0EE0FFF1F7A
:1003A000EE58FF4FA591B4918FB7F894EC911111CD
:1003B00008C0D095DE23DC938FBFDF91CF911F91D2
:1003C0000895DE2BF8CF1092EF0381E08093EE03C7
:1003D0001092C90361E082E10E94B50161E083E10E
:1003E0000E94B501E9EBF0E080818E7F80838081FF
:1003F0008D7F808388E48093B80085E48093BC007F
:100400000895CF93DF9391E0909381038823B9F00F
:10041000C091B800D091BA008091BC008A7B8093D3
:10042000BC0060E082E10E94B50160E083E10E94CF
:10043000B5010E94E301D093BA00C093B800DF91E8
:10044000CF910895CF93DF9390E0FC01E656FF4FE4
:1004500024918A579F4FFC0184918823D1F090E02A
:10046000880F991FFC01E859FF4FA591B491FC0139
:10047000EE58FF4FC591D49161110EC09FB7F8940B
:100480008C91E22FE0958E238C932881E223E883E0
:100490009FBFDF91CF9108958FB7F894EC91E22B35
:1004A000EC938FBFF6CF1F93CF93DF93182FEB0101
:1004B00061E00E942202209739F460E0812FDF91F1
:1004C000CF911F910C94B501E12FF0E0E255FF4F61
:1004D000E491E33039F148F4E130B9F0E230E9F089
:1004E000C038D10554F361E0E9CFE73029F1E830B5
:1004F00059F1E430A9F780918000806280938000F8
:10050000D0938B00C0938A0004C084B5806884BDFA
:10051000C7BDDF91CF911F91089584B5806284BDDE
:10052000C8BDF7CF80918000806880938000D09311
:100530008900C0938800EDCF8091B00080688093DF
:10054000B000C093B300E5CF8091B000806280938B
:10055000B000C093B400DDCF8E50806480937C00E7
:1005600080917A00806480937A0080917A0086FD81
:10057000FCCF809178009091790008953FB7F8946E
:1005800080915B0390915C03A0915D03B0915E0349
:1005900026B5A89B05C02F3F19F00196A11DB11DDE
:1005A0003FBFBA2FA92F982F8827BC01CD01620F1A
:1005B000711D811D911D42E0660F771F881F991FD5
:1005C0004A95D1F70895CF92DF92EF92FF920F9361
:1005D0001F93CF93DF93D091180481E0D13208F0BC
:1005E0009CC0C09117040E94BE026B017C018091E7
:1005F000EF0381116CC082E08093EF0381E0809370
:10060000EE038FEF8093ED031092EC03D093EB0396
:10061000A7EFB3E0EBECF3E080E0D8138DC01092CD
:10062000CA038091CA03CC0FC82BC093CA03809120
:10063000C903813009F084C01092C9030E94BE0230
:100640006B017C018091CA038093BB008091F10310
:100650009091F203A091F303B091F403892B8A2BBC
:100660008B2BA1F00E94BE020091F1031091F203C6
:100670002091F3033091F4036C197D098E099F09D1
:10068000061717072807390708F442C08091BC00F5
:1006900083FDD8CF85EC8093BC000E94BE026B0125
:1006A0007C018091EF03823009F44CC08091ED030E
:1006B0008F3F09F469C08091ED03803209F466C070
:1006C0008091ED03803309F463C084E026C08091FB
:1006D000F1039091F203A091F303B091F403892BFD
:1006E0008A2B8B2B09F483CF0E94BE020091F10369
:1006F0001091F2032091F3033091F4036C197D09FA
:100700008E099F09061717072807390708F06FCFCA
:100710008091F0030E94010285E01092F60310928E
:1007200018041092F503DF91CF911F910F91FF9064
:10073000EF90DF90CF9008959D9191938F5F6DCF53
:1007400085EEA9CF8091F1039091F203A091F3037C
:10075000B091F403892B8A2B8B2B09F4A2CF0E9432
:10076000BE020091F1031091F2032091F303309146
:10077000F4036C197D098E099F09061717072807CE
:10078000390708F08ECFC4CF80E0C7CF82E0C5CF55
:1007900083E0C3CF8F929F92AF92BF92CF92DF92AE
:1007A000EF92FF924B015C010E94BE026B017C0143
:1007B0000E94BE026C197D098E099F09683E734034
:1007C00081059105A8F321E0821A9108A108B108DA
:1007D00088EEC80E83E0D81EE11CF11C8114910440
:1007E000A104B10429F7FF90EF90DF90CF90BF9064
:1007F000AF909F908F9008952FB7F8946091570312
:10080000709158038091590390915A032FBF089516
:100810000895AF92BF92CF92DF92EF92FF920F9323
:100820001F93CF93DF936C017B018B01040F151F86
:10083000EB015E01AE18BF08C017D10759F06991EE
:10084000D601ED91FC910190F081E02DC601099552
:10085000892B79F7C501DF91CF911F910F91FF90FF
:10086000EF90DF90CF90BF90AF900895FC01538D33
:10087000448D252F30E0842F90E0821B930B54177A
:1008800010F0CF96089501970895FC01918D828D07
:10089000981761F0A28DAE0FBF2FB11D5D968C91A0
:1008A000928D9F5F9F73928F90E008958FEF9FEFDF
:1008B0000895FC01918D828D981731F0828DE80F9B
:1008C000F11D858D90E008958FEF9FEF0895FC0155
:1008D000918D228D892F90E0805C9F4F821B910922
:1008E0008F739927089585E294E00E94670421E0C0
:1008F000892B09F420E0822F089580E090E0892B75
:1009000029F00E94730481110C9400000895FC01E9
:10091000A48DA80FB92FB11DA35ABF4F2C91848D60
:1009200090E001968F739927848FA689B7892C93BD
:10093000A089B1898C91837080648C93938D848D10
:10094000981306C00288F389E02D80818F7D808313
:100950000895EF92FF920F931F93CF93DF93EC01D3
:1009600081E0888F9B8D8C8D98131AC0E889F98956
:10097000808185FF15C09FB7F894EE89FF89608359
:10098000E889F98980818370806480839FBF81E0DA
:1009900090E0DF91CF911F910F91FF90EF9008951C
:1009A000F62E0B8D10E00F5F1F4F0F731127E02EF7
:1009B0008C8D8E110CC00FB607FCFACFE889F9892F
:1009C000808185FFF5CFCE010E948704F1CFEB8DAA
:1009D000EC0FFD2FF11DE35AFF4FF0829FB7F89403
:1009E0000B8FEA89FB8980818062CFCFCF93DF9321
:1009F000EC01888D8823B9F0AA89BB89E889F98937
:100A00008C9185FD03C0808186FD0DC00FB607FC6B
:100A1000F7CF8C9185FFF2CF808185FFEDCFCE019E
:100A20000E948704E9CFDF91CF910895FC012381D3
:100A30002223F1F0262F61816095622360838281F9
:100A400091E09093F503809317041092F6031092AF
:100A5000180489E194E00E9434010E94E302282FE7
:100A600030E081E090E0232B11F090E080E00895E9
:100A700030E020E0F6CFEF92FF920F931F93CF93D9
:100A80008C01FC0184E0C0E0262F30E060FF02C052
:100A90009589C92BB901759567958150319681115A
:100AA000F3CF413011F4F8014489F8016585C62B74
:100AB000C42B7801FEE0EF0EF11CF80162896C2B6B
:100AC000C7010E941605F801628960956C23C70171
:100AD000CF911F910F91FF90EF900C9416050F93FB
:100AE0001F93CF93DF93062F0F70423041F440E005
:100AF000602FDF91CF911F910F910C943B05142F24
:100B0000EC0170E084E0759567958A95E1F7CE0178
:100B10000E943B05412F602FCE01EBCFFC01848565
:100B20008823A1F0218532852115310521F4611139
:100B300007C0158606C021303105D9F76111F9CFFC
:100B400085876585CF010E960C941605089521E0E2
:100B500001C0220F6A95EAF7DC011C962C931C97C2
:100B60001A965C934E931997ED91FC910484F58548
:100B7000E02D60E00994DC01ED91FC910684F7859D
:100B8000E02D41E0099581E090E00895DC01ED91D0
:100B9000FC910684F785E02D40E009940F931F93A4
:100BA000CF93DF93CDB7DEB728970FB6F894DEBFAB
:100BB0000FBECDBF009104011091050120910601E7
:100BC000309107010D831E832F8338870091080120
:100BD0001091090120910A0130910B0109831A83B8
:100BE0002B833C839091D404691710F06FEF690F49
:100BF000262F30E04091D5042C0F3D1FF9014031E4
:100C000099F4943089F46181680F60688DEC94E008
:100C100028960FB6F894DEBF0FBECDBFDF91CF91FF
:100C20001F910F910C94C6056581EECF61E00E9483
:100C3000C6058BE39FE10197F1F708950F931F938A
:100C4000CF93DF93EC01423018F08C8188608C8365
:100C50004F836887222329F0413019F48C81846006
:100C60008C8364E670E080E090E00E94CA036C81AF
:100C700064FD57C0E881F9810684F785E02D42E0E4
:100C800063E0CE0109958BE496E40197F1F7E881E2
:100C9000F9810684F785E02D42E063E0CE010995F5
:100CA00003E512E0C8010197F1F7E881F9810684B4
:100CB000F785E02D42E063E0CE010995C801019778
:100CC000F1F7E881F9810684F785E02D42E062E0E2
:100CD000CE010995C8010197F1F76C816062CE01E0
:100CE0000E94C6058BEE90E00197F1F784E08D83BA
:100CF0006CE0CE010E94C605CE010E94160682E07D
:100D00008E8366E0CE010E94C605E881F9810484E5
:100D1000F585E02D6FEFCE01DF91CF911F910F91FF
:100D200009946062CE010E94C6058BE496E40197A7
:100D3000F1F76C816062CE010E94C60503E512E006
:100D4000C8010197F1F76C816062CE010E94C6056F
:100D5000C1CFEF92FF920F931F93CF93DF93EC01DC
:100D6000062FF42EE22E8B85888B10928003109232
:100D70007F031092F603109218040E94E3018BED9A
:100D800090E09093A3038093A2038CED90E0909366
:100D9000A7038093A603888911E01093F50380933D
:100DA00017040E94E30281111CC0198B89E194E0B1
:100DB0000E94ED008E878989882339F01F861C8266
:100DC00060E0CE010E960E9416052E2D4F2D602F4D
:100DD000CE01DF91CF911F910F91FF90EF900C9476
:100DE0001E06198AE8CF08950895089590E080E0DE
:100DF00008950F931F930E94FC03009136031091F6
:100E000037032091380330913903601B710B820B3B
:100E1000930B6531710581059105F8F00E94FC0383
:100E200060933603709337038093380390933903AC
:100E30008091C7048823A1F08091CC04853069F0AB
:100E40008091CC04833049F48091C8049091C90406
:100E500001969093C9048093C8041F910F9108953F
:100E60008091CC048530E9F08091CC048630C9F0C3
:100E70008091CC04833049F58091C8049091C904D5
:100E800001969093C9048093C8042091C8043091BE
:100E9000C9048091CA049091CB04281739078CF4B7
:100EA000DCCF8091C8049091C90401979093C90444
:100EB0008093C8048091C8049091C904181619063B
:100EC00064F281E080935103C8CF8091CC048430D8
:100ED00021F6D2CF85ED8093BC008091F1039091F3
:100EE000F203A091F303B091F4030796A11DB11D85
:100EF00023E0B695A795979587952A95D1F72091E8
:100F0000BC0024FD03C01092EF0308954091F1034B
:100F10005091F2036091F3037091F403452B462B3B
:100F2000472B69F30097A105B10541F025E32A9508
:100F3000F1F700000197A109B109E1CF8091F00319
:100F40000C9401020E942615FB0101900020E9F794
:100F50003197AF01461B570BDC01ED91FC910280EC
:100F6000F381E02D09948F929F92AF92BF920F93DD
:100F70001F93CF93DF93CDB7DEB7A1970FB6F89449
:100F8000DEBF0FBECDBF19A2423008F44AE08E0189
:100F90000F5D1F4F842E912CB12CA12CA501940123
:100FA0000E94C212E62FB901CA01EA3004F5E05DE1
:100FB000D801EE938D01232B242B252B79F790E07C
:100FC00080E0109729F0BD0185E294E00E94A4071B
:100FD000A1960FB6F894DEBF0FBECDBFDF91CF91C3
:100FE0001F910F91BF90AF909F908F900895E95CF3
:100FF000DFCFCF92DF92EF92FF92CF93DF936C011E
:10100000990FEE08FF08F7FE21C06DE285E294E03B
:101010000E94A904EC0166277727CB016C197D0992
:101020008E099F094AE00E94B307C80FD91F64E4E4
:1010300071E085E294E00E94A4078C0F9D1FDF9170
:10104000CF91FF90EF90DF90CF9008954AE0C701D5
:10105000B6010E94B307EC01EACFCF93DF93BC0146
:1010600085E294E00E94A407EC0164E471E085E26B
:1010700094E00E94A4078C0F9D1FDF91CF910895EB
:101080000C94A407CF93DF93C2ECD4E085E08A8769
:1010900061E08DEC94E00E948E058DEC94E00E945E
:1010A000160661E080E00E94CE0567E471E08DECF9
:1010B00094E00E94400866E571E085E294E00E94B9
:1010C000400870E060E086E00E9453026AEA70E047
:1010D00085E00E94530281E090E099838883DF914C
:1010E000CF9108958F929F92AF92BF92CF92DF924D
:1010F000EF92FF920E94FC03C0904003D090410306
:10110000E0904203F09043036C197D098E099F091A
:10111000643671058105910508F44DC060913E0368
:1011200070913F03C0903A03D0903B03E0903C03A2
:10113000F0903D03653071050CF046C06F5F7F4F46
:1011400070933F0360933E038EE00E94AC02BC01AB
:10115000990F880B990B0E94FF132AE038E240EAAE
:101160005BE30E94B41420E030E040E250E40E94CF
:10117000EA1226EA3BE944E45CE30E94EB122DEC20
:101180003CEC4CEC5DE30E945C13A70196010E94CD
:10119000EB1260933A0370933B0380933C0390936C
:1011A0003D030E94FC0360934003709341038093CE
:1011B000420390934303FF90EF90DF90CF90BF9056
:1011C000AF909F908F90089561507109072E000C89
:1011D000880B990B0E94FF139B01AC01C701B6015C
:1011E0000E945C1360933A0370933B0380933C032B
:1011F00090933D0368E671E085E294E00E94400828
:10120000C0903A03D0903B03E0903C03F0903D0344
:10121000A7019601C701B6010E94211562E771E09E
:1012200081111AC046015701E894B7F82FEF3FEF3C
:101230004FE75FE7C501B4010E942115811123C06A
:101240002FEF3FEF4FE75FE7C501B4010E9457134F
:101250001816CCF466E771E085E294E00E94A407DA
:1012600065E471E085E294E00E94400810923F033B
:1012700010923E0310923A0310923B0310923C03EB
:1012800010923D038ECF2FEF3FEF4FE75FE4C70192
:10129000B6010E94AF1418161CF46AE771E0DCCFA7
:1012A0002FEF3FEF4FE75FECC701B6010E945713E6
:1012B00087FDF3CF20E030E0A901C701B6010E940D
:1012C000571387FF09C06DE285E294E00E94A904EC
:1012D000F7FAF094F7F8F0942AE037ED43EA5BE38D
:1012E000C701B6010E94EB124B015C010E94CE13B4
:1012F0006B017C010E94FD139B01AC01C501B4018F
:101300000E94EA124B015C014AE0C701B6010E944B
:10131000B3076EE285E294E00E94A90420E030E089
:1013200040E251E4C501B4010E94B4144B015C01D8
:101330000E94CE136B01F12CE12C4AE0C701B601EB
:101340000E94B307C701B6010E94FD139B01AC01C7
:10135000C501B4010E94EA1220E030E040E251E40D
:101360000E94B4140E94CE1390E080E04AE00E94F4
:10137000B30776CF0C94B412CF93DF9361E08DEC7A
:1013800094E00E948E058DEC94E00E94160660E0C9
:1013900080E00E94CE0560EA72E08DEC94E00E944D
:1013A00040086EE771E085E294E00E94400861E049
:1013B00080E00E94CE0566E871E08DEC94E00E942A
:1013C000400870E060E086E00E94530270E060E058
:1013D00085E00E945302C2ECD4E01F821E8219866F
:1013E00018866E817F8190E080E00E94BA0968854E
:1013F000798581E090E00E94BA09A895DF91CF91AC
:1014000008958091C704882309F458C070E060E013
:1014100086E00E94530270E060E085E00E94530283
:101420001092C3041092C2048DEC94E00E94160640
:1014300060E080E00E94CE0565E971E08DEC94E00B
:101440000E94400865EA71E085E294E00E9440084D
:1014500061E080E00E94CE0564EB71E08DEC94E0E9
:101460000E94400885E991E00E942D0884EB91E0FC
:101470000E942D088091C8049091C9049093CB04D8
:101480008093CA0484E08093CC046091C804709176
:10149000C90490E080E00E94BA096091CA0470918A
:1014A000CB0481E090E00E94BA096091CC0482E014
:1014B00090E00E94BA091092C704089561E08DEC93
:1014C00094E00E948E058DEC94E00E94160660E088
:1014D00080E00E94CE0561EC71E08DEC94E00E940A
:1014E000400881EC91E00E942D0881E08093C704C0
:1014F0006AEA70E086E00E94530270E060E085E0F6
:101500000E94530281E090E09093C3048093C20450
:1015100068EE73E080E090E00C94CA038091C70409
:10152000882309F45CC070E060E086E00E9453020A
:1015300070E060E085E00E9453021092C3041092B4
:10154000C2048DEC94E00E94160660E080E00E94E8
:10155000CE0561ED71E08DEC94E00E9440086FEDE6
:1015600071E085E294E00E94400861E080E00E9422
:10157000CE0560EF71E08DEC94E00E9440086EEFC4
:1015800071E085E294E00E9440088091C804909147
:10159000C9040E94F9071092CB041092CA04109259
:1015A000CB041092CA0482E08093CC046091C804FA
:1015B0007091C90490E080E00E94BA096091CA0469
:1015C0007091CB0481E090E00E94BA096091CC0454
:1015D00082E090E00E94BA091092C704089561E089
:1015E0008DEC94E00E948E058DEC94E00E9416062E
:1015F00060E080E00E94CE0567E172E08DEC94E04F
:101600000E94400887E192E00E942D0881E08093CB
:10161000C7041092C9041092C8041092CB0410920F
:10162000CA0485E08093CC046091C8047091C90419
:1016300090E080E00E94BA096091CA047091CB04E6
:1016400081E090E00E94BA096091CC0482E090E0D1
:101650000E94BA0981E090E09093C3048093C20491
:1016600070E060E086E00E9453026AEA70E085E084
:101670000E94530268EE73E080E090E00C94CA038D
:1016800080E10E94AC028839934044F461E080E13B
:101690000E94220261E080E10C94B50160E080E1EB
:1016A0000E94220280E10E94AC02893E93402CF10C
:1016B00084E08093CC046091C8047091C90490E0E8
:1016C00080E00E94BA096091CA047091CB0481E065
:1016D00090E00E94BA096091CC0482E090E00E9400
:1016E000BA0968E272E085E294E00E9440086DE386
:1016F00072E085E294E00C94400808951F920F92E6
:101700000FB60F9211242F933F934F935F936F93D4
:101710007F938F939F93AF93BF93EF93FF938091AA
:10172000B900887F803609F44AC0F0F5883209F4A0
:10173000A7C018F5803109F49BC0B8F4882309F4D8
:10174000F9C0883009F494C0FF91EF91BF91AF9137
:101750009F918F917F916F915F914F913F912F91C9
:101760000F900FBE0F901F901895883109F488C014
:10177000803251F78093ED0314C0803409F49DC08A
:1017800040F48033B9F38833F9F68093ED0385ECA8
:10179000B0C0803509F485C0883509F496C0883416
:1017A00099F60E946A07D0CF883909F48CC038F5C1
:1017B000883729F050F4883611F0803729F683E015
:1017C0008093EF031092C80357C0883809F47BC098
:1017D000803919F0803809F0B7CF8091C803803282
:1017E00008F071C0E091C80381E08E0F8093C803B8
:1017F0008091BB00F0E0E855FC4F80833DC0803B0A
:1018000039F0E0F4803A09F479C0883A09F09CCFC5
:1018100084E08093EF031092A5031092A403E0915B
:10182000A203F091A30309958091A40381110FC035
:1018300081E08093A4031092820309C0803C09F4E4
:10184000A6CF883C09F4A3CF883B09F07DCFE09177
:10185000A50381E08E0F8093A503F0E0EE57FC4FC7
:1018600080818093BB009091A5038091A40329C03F
:101870008091CA038093BB0085EC8093BC0064CF49
:101880009091EC038091EB03981758F5E091EC03ED
:1018900081E08E0F8093EC03F0E0E553FC4F8081F4
:1018A000E9CFE091EC0381E08E0F8093EC0380910F
:1018B000BB00F0E0E553FC4F80839091EC038091F6
:1018C000EB039817C8F285E8D8CFE091EC0381E0EC
:1018D0008E0F8093EC038091BB00F0E0E553FC4F4A
:1018E00080838091EE0381115CCF81E08093C903F6
:1018F00084EA8093BC001092EF0326CF85EC80939E
:10190000BC001092EF038091C803803230F4E09164
:10191000C803F0E0E855FC4F10826091C80370E006
:10192000E091A603F091A70388EA93E0099510924D
:10193000C8030ACF1092ED0334CF1F920F920FB657
:101940000F9211242F933F938F939F93AF93BF9345
:101950008091570390915803A0915903B0915A0375
:101960003091560323E0230F2D3758F50196A11D22
:10197000B11D209356038093570390935803A0936F
:101980005903B0935A0380915B0390915C03A0913B
:101990005D03B0915E030196A11DB11D80935B03B1
:1019A00090935C03A0935D03B0935E03BF91AF91EE
:1019B0009F918F913F912F910F900FBE0F901F908D
:1019C000189526E8230F0296A11DB11DD2CF1F92B4
:1019D0000F920FB60F9211242F933F934F935F9363
:1019E0006F937F938F939F93AF93BF93EF93FF93E7
:1019F000E0910201F09103010995FF91EF91BF91F0
:101A0000AF919F918F917F916F915F914F913F9196
:101A10002F910F900FBE0F901F9018951F920F924D
:101A20000FB60F9211242F933F934F935F936F93B1
:101A30007F938F939F93AF93BF93EF93FF93E09127
:101A40000001F09101010995FF91EF91BF91AF91D4
:101A50009F918F917F916F915F914F913F912F91C6
:101A60000F900FBE0F901F9018951F920F920FB6F8
:101A70000F9211242F933F934F935F936F937F9314
:101A80008F939F93AF93BF93EF93FF9385E294E07F
:101A90000E948704FF91EF91BF91AF919F918F9129
:101AA0007F916F915F914F913F912F910F900FBE5A
:101AB0000F901F9018951F920F920FB60F9211243E
:101AC0002F938F939F93EF93FF93E0913504F091C1
:101AD00036048081E0913B04F0913C0482FD1BC000
:101AE000908180913E048F5F8F7320913F04821715
:101AF00041F0E0913E04F0E0EB5DFB4F958F809369
:101B00003E04FF91EF919F918F912F910F900FBE07
:101B10000F901F9018958081F4CF1F920F920FB6EF
:101B20000F9211242F933F934F935F936F937F9363
:101B30008F939F93AF93BF93EF93FF9380914A034B
:101B400090914B038093B20080914D0390914E038E
:101B5000A0914F03B09150030196A11DB11D809338
:101B60004D0390934E03A0934F03B0935003809185
:101B70004D0390914E03A0914F03B09150034091BB
:101B800046035091470360914803709149038417BD
:101B90009507A607B70710F180914C0381111EC06D
:101BA00081E080934C0380914D0390914E03A0916E
:101BB0004F03B0915003841B950BA60BB70B80937A
:101BC0004D0390934E03A0934F03B0935003E091C5
:101BD0004403F0914503099510924C03FF91EF9156
:101BE000BF91AF919F918F917F916F915F914F9135
:101BF0003F912F910F900FBE0F901F901895E9E124
:101C0000F4E01382128288EE93E0A0E0B0E08483D7
:101C10009583A683B78320E131E031832083E5E219
:101C2000F4E01382128284839583A683B78382E2D1
:101C300091E09183808385EC90E09587848784ECA4
:101C400090E09787868780EC90E0918B808B81EC89
:101C500090E0938B828B82EC90E0958B848B86EC6A
:101C600090E0978B868B118E128E138E148EEDEC76
:101C7000F4E01382128284E391E091838083108ADE
:101C80008FEF87871686118A87E2838714861586E9
:101C90001286118684E0828B82E0838B81E0848BC4
:101CA00080E1858B80E2868B80E4878B80E8808F63
:101CB00050E040E063E0CF010E94A705E2ECF4E0D1
:101CC0001182108213821282158217821682118667
:101CD00010860895789484B5826084BD84B581604F
:101CE00084BD85B5826085BD85B5816085BD8091E7
:101CF0006E00816080936E0010928100809181005F
:101D00008260809381008091810081608093810056
:101D1000809180008160809380008091B100846018
:101D20008093B1008091B00081608093B000809179
:101D30007A00846080937A0080917A008260809338
:101D40007A0080917A00816080937A0080917A0095
:101D5000806880937A001092C1000E948C0020E07D
:101D600042E060E18DEC94E00E94A9068DEC94E0E5
:101D70000E94160660E083E00E94CE0560E08DECD4
:101D800094E00E948E051092C60490E080E00E94CC
:101D9000AC1290E09093C9048093C80481E090E075
:101DA0000E94AC1290E09093CB048093CA0482E02E
:101DB00090E00E94AC128093CC0461E085E00E9428
:101DC000220261E086E00E94220260E087E00E9439
:101DD000220260E083E00E94220260E084E00E9430
:101DE000220260E08AE00E94220260E08BE00E9412
:101DF000220260E08CE00E94220260E08EE00E94FD
:101E0000220260E082E00E9422020E948C0088E1AF
:101E100099E20FB6F894A895809360000FBE909356
:101E2000600089EF96E0909301018093000180911A
:101E300069008C7F826080936900E89A8AE090E074
:101E4000A0E0B0E08093460390934703A09348033B
:101E5000B093490380E49BE090934503809344034F
:101E6000809170008E7F809370008091B0008C7F95
:101E70008093B0008091B100877F8093B100809102
:101E8000B6008F7D8093B600809170008D7F809327
:101E900070008091B10084608093B1008091B100A6
:101EA0008C7F8093B10086E090E090934B03809309
:101EB0004A0310924D0310924E0310924F0310925A
:101EC000500310924C0380914A0390914B038093EE
:101ED000B2008091700081608093700066E472E0CF
:101EE00085E294E00E94400800E010E0C1E0D6E006
:101EF000EE24E394F12C8091C60481119DC070E022
:101F000060E086E00E94530270E060E085E00E949D
:101F1000530260E08DEC94E00E948E058DEC94E01D
:101F20000E94160683E00E948C01019709F077C099
:101F300083E00E948C010197D9F3C093C60470E03E
:101F400060E086E00E94530270E060E085E00E945D
:101F5000530261E08DEC94E00E948E058091CC04E8
:101F6000863031F560E080E00E94CE0560E572E0E9
:101F70008DEC94E00E9440086FE572E085E294E009
:101F80000E9440086EEF71E085E294E00E944008F4
:101F90008091C8049091C9040E94F90761E080E033
:101FA0000E94CE0560E772E08DEC94E00E9440084C
:101FB0008091CC04843031F560E080E00E94CE0551
:101FC0006CE772E08DEC94E00E9440086AE872E0F1
:101FD00085E294E00E9440086EEF71E085E294E0B3
:101FE0000E9440088091C8049091C9040E94F9079A
:101FF00061E080E00E94CE0564EB71E08DEC94E03E
:102000000E9440088091CC04811109C061E00E94C7
:10201000CE056AE972E08DEC94E00E944008A89534
:102020000115110509F467CF0E947304882309F490
:1020300062CF0E9400005FCF8091C604813079F7A3
:10204000E091CC04E83058F70E2E000CFF0BE55D54
:10205000FF4E0C94E41233105F10DA101311861146
:10206000B2112412781270E060E086E00E94530200
:1020700070E060E085E00E94530283E00E948C01E2
:10208000019739F483E00E948C010197D9F31092F3
:10209000C6048AE00E948C01019709F0C0CF8AE053
:1020A0000E948C010197D9F30E94BC09C093CC0413
:1020B0006091CC0482E090E00E94BA09B0CF8AE03F
:1020C0000E948C01019709F059C00E94FC036093A3
:1020D00052037093530380935403909355038AE003
:1020E0000E948C01019709F049C00E94FC03809076
:1020F000520390905303A0905403B0905503681975
:1021000079098A099B09683873418105910538F37B
:1021100061E08DEC94E00E948E058DEC94E00E94CD
:10212000160660E080E00E94CE0566EA72E08DEC63
:1021300094E00E94400860ED77E080E090E00E942B
:10214000CA0360E080E00E94CE0564EB72E08DEC93
:1021500094E00E94400861E080E00E94CE0565ECBA
:1021600072E08DEC94E00E9440081092CC046091E3
:10217000CC0482E090E00E94BA09B1CF83E00E94D3
:102180008C01019739F483E00E948C010197D9F307
:102190001092C6048CE00E948C01019709F03FCF99
:1021A0008CE00E948C010197D9F31092C7040E9421
:1021B0008E0A35CF8BE00E948C01019791F48BE061
:1021C0000E948C010197D9F383E08093CC04609145
:1021D000CC0482E090E00E94BA091092C7040E94E9
:1021E000010A8AE00E948C01019779F48AE00E943A
:1021F0008C010197D9F30E94BC09C093CC04609173
:10220000CC0482E090E00E94BA0983E00E948C0135
:10221000019709F004CF83E00E948C010197D9F364
:102220001092C604FCCE0E9472088091510388234C
:10223000E9F11092510370E060E086E00E945302E1
:1022400070E060E085E00E9453021092C304109297
:10225000C2048DEC94E00E94160660E080E00E94CB
:10226000CE056CE772E08DEC94E00E94400861E0DE
:1022700080E00E94CE0564EB71E08DEC94E00E945A
:10228000400865ED72E085E294E00E94400862EE4D
:1022900072E085E294E00E9440088091C804909129
:1022A000C9040E94F90784E08093CC048091C7049C
:1022B000882361F08BE00E948C01019739F48BE058
:1022C0000E948C010197D9F30E94010A8AE00E94C2
:1022D0008C01019779F48AE00E948C010197D9F36F
:1022E0000E94BC09C093CC046091CC0482E090E0D1
:1022F0000E94BA0983E00E948C01019709F08FCEF9
:1023000083E00E948C010197D9F38ACF84E00E9478
:102310008C01019739F484E00E948C010197D9F374
:102320000E9442088AE00E948C01019779F48AE0B9
:102330000E948C010197D9F30E94BC09C093CC0480
:102340006091CC0482E090E00E94BA0983E00E9490
:102350008C01019709F063CE83E00E948C01019704
:10236000D9F35ECF0E947208809151038823E1F176
:102370001092510370E060E086E00E94530270E02A
:1023800060E085E00E9453021092C3041092C204E0
:102390008DEC94E00E94160660E080E00E94CE057D
:1023A0006BEF72E08DEC94E00E94400861E080E009
:1023B0000E94CE0560E772E08DEC94E00E94400838
:1023C00069E073E085E294E00E94400862EE72E00A
:1023D00085E294E00E9440088091C8049091C9046D
:1023E0000E94F907D093CC048091C704882361F040
:1023F0008CE00E948C01019739F48CE00E948C01E2
:102400000197D9F30E948E0A8AE00E948C010197FD
:1024100079F48AE00E948C010197D9F30E94BC09EB
:10242000C093CC046091CC0482E090E00E94BA0991
:1024300083E00E948C01019709F0F1CD83E00E94B6
:102440008C010197D9F3ECCE87E00E948C010197B3
:1024500079F587E00E948C010197D9F383E080939E
:10246000CC0461E08DEC94E00E948E058DEC94E04C
:102470000E94160661E080E00E94CE0567E173E0ED
:102480008DEC94E00E94400865E273E085E294E000
:102490000E9440086AEA70E086E00E94530270E001
:1024A00060E085E00E945302F092C304E092C2040F
:1024B0008AE00E948C01019779F48AE00E948C01E5
:1024C0000197D9F30E94BC09C093CC046091CC045D
:1024D00082E090E00E94BA0983E00E948C0101979B
:1024E00009F09DCD83E00E948C010197D9F398CE2D
:1024F00084E00E948C01019779F484E00E948C01B1
:102500000197D9F30E944208D093CC046091CC0487
:1025100082E090E00E94BA098AE00E948C01019753
:1025200079F48AE00E948C010197D9F30E94BC09DA
:10253000C093CC046091CC0482E090E00E94BA0980
:1025400083E00E948C01019709F069CD83E00E942D
:102550008C010197D9F364CEF999FECF92BD81BD6C
:10256000F89A992780B50895262FF999FECF1FBABA
:1025700092BD81BD20BD0FB6F894FA9AF99A0FBEAC
:1025800001960895A1E21A2EAA1BBB1BFD010DC0E6
:10259000AA1FBB1FEE1FFF1FA217B307E407F50713
:1025A00020F0A21BB30BE40BF50B661F771F881FEF
:1025B000991F1A9469F760957095809590959B0185
:1025C000AC01BD01CF010895EE0FFF1F0590F491FE
:1025D000E02D09945058BB27AA270E9402130C949F
:1025E00075140E94671438F00E946E1420F039F4BC
:1025F0009F3F19F426F40C9464140EF4E095E7FB65
:102600000C945E14E92F0E94861458F3BA176207DF
:1026100073078407950720F079F4A6F50C94A814A5
:102620000EF4E0950B2EBA2FA02D0B01B9019001ED
:102630000C01CA01A0011124FF27591B99F0593F31
:1026400050F4503E68F11A16F040A22F232F342F79
:102650004427585FF3CF469537952795A795F040C7
:102660005395C9F77EF41F16BA0B620B730B840BDC
:10267000BAF09150A1F0FF0FBB1F661F771F881F94
:10268000C2F70EC0BA0F621F731F841F48F48795EC
:1026900077956795B795F7959E3F08F0B0CF9395DE
:1026A000880F08F09927EE0F9795879508950E9457
:1026B0003A1408F481E008950E9470130C94751484
:1026C0000E946E1458F00E94671440F029F45F3F96
:1026D00029F00C945E1451110C94A9140C946414F8
:1026E0000E94861468F39923B1F3552391F3951B47
:1026F000550BBB27AA2762177307840738F09F5F23
:102700005F4F220F331F441FAA1FA9F335D00E2E8F
:102710003AF0E0E832D091505040E695001CCAF7FC
:102720002BD0FE2F29D0660F771F881FBB1F2617BF
:1027300037074807AB07B0E809F0BB0B802DBF0196
:10274000FF2793585F4F3AF09E3F510578F00C9465
:102750005E140C94A9145F3FE4F3983ED4F386957D
:1027600077956795B795F7959F5FC9F7880F911D86
:102770009695879597F90895E1E0660F771F881F72
:10278000BB1F621773078407BA0720F0621B730B25
:10279000840BBA0BEE1F88F7E09508950E948E1403
:1027A00088F09F5798F0B92F9927B751B0F0E1F012
:1027B000660F771F881F991F1AF0BA95C9F714C0C2
:1027C000B13091F00E94A814B1E008950C94A814BF
:1027D000672F782F8827B85F39F0B93FCCF38695FB
:1027E00077956795B395D9F73EF490958095709558
:1027F00061957F4F8F4F9F4F0895E89409C097FBD5
:102800003EF490958095709561957F4F8F4F9F4FC7
:102810009923A9F0F92F96E9BB279395F69587950B
:1028200077956795B795F111F8CFFAF4BB0F11F4CE
:1028300060FF1BC06F5F7F4F8F4F9F4F16C0882375
:1028400011F096E911C0772321F09EE8872F762FAB
:1028500005C0662371F096E8862F70E060E02AF0EC
:102860009A95660F771F881FDAF7880F96958795D8
:1028700097F90895990F0008550FAA0BE0E8FEEFAD
:1028800016161706E807F907C0F012161306E40734
:10289000F50798F0621B730B840B950B39F40A262D
:1028A00061F0232B242B252B21F408950A2609F40B
:1028B000A140A6958FEF811D811D089597F99F670F
:1028C00080E870E060E008959FEF80EC08950024B8
:1028D0000A941616170618060906089500240A9485
:1028E00012161306140605060895092E0394000C0B
:1028F00011F4882352F0BB0F40F4BF2B11F460FF9A
:1029000004C06F5F7F4F8F4F9F4F089557FD9058C2
:10291000440F551F59F05F3F71F04795880F97FBA3
:10292000991F61F09F3F79F087950895121613065D
:102930001406551FF2CF4695F1DF08C0161617068C
:102940001806991FF1CF86957105610508940895C1
:10295000E894BB2766277727CB0197F908950E9453
:102960003A1408F48FEF08950E94C7140C9475145C
:102970000E94671438F00E946E1420F0952311F025
:102980000C945E140C94641411240C94A9140E94E9
:10299000861470F3959FC1F3950F50E0551F629F09
:1029A000F001729FBB27F00DB11D639FAA27F00DA8
:1029B000B11DAA1F649F6627B00DA11D661F829FCF
:1029C0002227B00DA11D621F739FB00DA11D621FB4
:1029D000839FA00D611D221F749F3327A00D611DD1
:1029E000231F849F600D211D822F762F6A2F1124B3
:1029F0009F5750409AF0F1F088234AF0EE0FFF1FE6
:102A0000BB1F661F771F881F91505040A9F79E3F3C
:102A1000510580F00C945E140C94A9145F3FE4F30C
:102A2000983ED4F3869577956795B795F795E79592
:102A30009F5FC1F7FE2B880F911D9695879597F99B
:102A400008950E943A14880B990B089581E090E054
:0A2A5000F8940C942B15F894FFCFB6
:102A5A00080408040040145400401050000000000C
:102A6A0034010701F606DD000001ED00DE0000007A
:102A7A000000A90409043604F6046704450459044D
:102A8A0000000000BB050904F606F506A906A7051D
:102A9A008E056F050D0A00566172616C20646573BC
:102AAA0063656E646F00566172616C20446573637E
:102ABA00656E646F21200A00436F7272656E7465D9
:102ACA003A006E616E00696E66006F766600524566
:102ADA00534554200A0073616C76617220646573F1
:102AEA006369646100456C657661646F7220507237
:102AFA006F6E746F005375626964612053616C76FE
:102B0A0061200A005465636C6520646573636572AD
:102B1A000053616C76616E646F20537562696461FB
:102B2A0000446573636964612053616C7661004493
:102B3A006573636964612053616C766121200A00C0
:102B4A0073616C7661722073756269646100456CA9
:102B5A00657661646F722E706F736963616F417419
:102B6A0075616C203D200053616C76616E646F2044
:102B7A00446573636964610042726F776E4F75745E
:102B8A0020446574656374656421200A0053617684
:102B9A00656421200A004C6967616E646F200A002F
:102BAA00566172616C20656D20626169786F0056AA
:102BBA006172616C20656D20626169786F200A001C
:102BCA005465636C6520737562697200566172613F
:102BDA006C20656D2063696D6100566172616C20BD
:102BEA00656D2063696D61200A005465636C652018
:102BFA00524553455400524553455420464142528A
:102C0A0049434100456C657661646F72657320487B
:102C1A0061726168005072657373696F6E652052E4
:102C2A00657365740046696D207375626964612015
:102C3A000A00456C657661646F722E706F73696302
:102C4A00616C417475616C203D2000566172616C43
:102C5A0020656D626169786F0046696D20646573ED
:102C6A0063696461200A00566172616C205375625F
:102C7A00696E646F00566172616C20537562696E89
:062C8A00646F21200A0026
:00000001FF
