:100000000C9462000C94AC0B0C94850B0C948A003D
:100010000C948A000C948A000C948A000C948A0038
:100020000C948A000C942B0C0C948A000C948A007B
:100030000C948A000C948A000C948A000C948A0018
:100040000C943B0B0C948A000C94F90B0C94D30B7E
:100050000C948A000C948A000C948A000C948A00F8
:100060000C941C0A0C948A00000000002400270055
:100070002A0000000000250028002B0000000000DE
:1000800023002600290004040404040404040202DA
:100090000202020203030303030301020408102007
:1000A0004080010204081020010204081020000012
:1000B0000008000201000003040700000000000027
:1000C00000009D0C11241FBECFEFD8E0DEBFCDBFD6
:1000D00012E0A0E0B1E0EAEDF2E202C005900D927C
:1000E000A23EB107D9F724E0A2EEB2E001C01D9212
:1000F000A838B207E1F710E0C2E6D0E004C02197CB
:10010000FE010E946011C136D107C9F70E94080D97
:100110000C946B110C940000E7ECF3E0A089B1891A
:1001200082E08C93A485B5851C92A685B7858FEC5B
:100130008C93108EA489B58986E08C93A289B389AB
:100140008C9180618C93A289B3898C9188608C9307
:10015000A289B3898C9180688C930288F389E02D01
:1001600080818F7D8083089582E480937C008091DC
:100170007A00806480937A0080917A0086FDFCCFBB
:100180008091780090917900089520914603260F80
:100190003327331F21323105ECF420919103FC0108
:1001A00090E080E0243069F082E00895A091460359
:1001B0002191AC014C5D5C4FA40FB52FB11D2C9368
:1001C0000196861798F380914603680F6093460363
:1001D00080E0089581E00895089508950895E091DC
:1001E000220380912103E81730F4F0E0EF5FFC4F29
:1001F000808190E008958FEF9FEF08959091220302
:10020000809121032FEF3FEF981748F4E92FF0E09A
:10021000EF5FFC4F208130E09F5F90932203C90184
:1002200008958091210390912203891B990B0895D1
:10023000CF92DF92EF92FF920F931F93CF93DF93B2
:100240007C01CB018A0120919703222389F0EB01E5
:100250006B01C40ED51ECC15DD0569F06991D7017F
:10026000ED91FC910190F081E02DC7010995F3CF4C
:10027000642F0E94C500C801DF91CF911F910F919B
:10028000FF90EF90DF90CF900895CF93DF931F9270
:10029000CDB7DEB76983209197032223F9F020912F
:1002A000BA03203258F021E030E0FC01338322838E
:1002B00090E080E00F90DF91CF91089580919803B6
:1002C000E82FF0E0E756FC4F998190838F5F809391
:1002D00098038093BA0381E090E0ECCF61E0CE0117
:1002E00001960E94C500F7CF833081F028F4813059
:1002F00099F08230A9F008958730A9F08830C9F0CC
:100300008430B1F4809180008F7D03C080918000A3
:100310008F7780938000089584B58F7784BD08958A
:1003200084B58F7DFBCF8091B0008F778093B00034
:1003300008958091B0008F7DF9CFCF93DF93282F60
:1003400030E0F901E255FF4F8491F901E656FF4F85
:10035000D491F901EA57FF4FC491CC23A1F0811148
:100360000E947401EC2FF0E0EE0FFF1FE458FF4FE6
:10037000A591B491EC91ED2381E090E009F480E047
:10038000DF91CF91089580E090E0FACF1F93CF9353
:10039000DF93282F30E0F901E255FF4F8491F901F6
:1003A000E656FF4FD491F901EA57FF4FC491CC2391
:1003B000A9F0162F81110E947401EC2FF0E0EE0FCE
:1003C000FF1FEE58FF4FA591B4918FB7F894EC91B1
:1003D000111108C0D095DE23DC938FBFDF91CF9140
:1003E0001F910895DE2BF8CF1092910381E0809346
:1003F000900310926B0361E082E10E94C60161E00C
:1004000083E10E94C601E9EBF0E080818E7F80836A
:1004100080818D7F808388E48093B80085E4809319
:10042000BC000895CF93DF9391E09093230388233A
:10043000B9F0C091B800D091BA008091BC008A7B1D
:100440008093BC0060E082E10E94C60160E083E12D
:100450000E94C6010E94F401D093BA00C093B80074
:10046000DF91CF910895CF93DF9390E0FC01E656A2
:10047000FF4F24918A579F4FFC0184918823D1F02C
:1004800090E0880F991FFC01E859FF4FA591B491A6
:10049000FC01EE58FF4FC591D49161110EC09FB77A
:1004A000F8948C91E22FE0958E238C932881E2239F
:1004B000E8839FBFDF91CF9108958FB7F894EC91B7
:1004C000E22BEC938FBFF6CF1F93CF93DF93182FC0
:1004D000EB0161E00E943302209739F460E0812F44
:1004E000DF91CF911F910C94C601E12FF0E0E2550E
:1004F000FF4FE491E33039F148F4E130B9F0E230F4
:10050000E9F0C038D10554F361E0E9CFE73029F1D3
:10051000E83059F1E430A9F780918000806280933F
:100520008000D0938B00C0938A0004C084B580689B
:1005300084BDC7BDDF91CF911F91089584B58062BE
:1005400084BDC8BDF7CF8091800080688093800013
:10055000D0938900C0938800EDCF8091B00080686F
:100560008093B000C093B300E5CF8091B00080626B
:100570008093B000C093B400DDCF3FB7F894809172
:10058000FD029091FE02A091FF02B091000326B5FA
:10059000A89B05C02F3F19F00196A11DB11D3FBFBB
:1005A000BA2FA92F982F8827BC01CD01620F711D8A
:1005B000811D911D42E0660F771F881F991F4A9584
:1005C000D1F70895CF92DF92EF92FF920F931F938E
:1005D000CF93DF93D091BA0381E0D13208F09CC071
:1005E000C091B9030E94BD026B017C01809191030F
:1005F00081116CC082E08093910381E0809390032D
:100600008FEF80938F0310928E03D0938D03A9E90F
:10061000B3E0EDE6F3E080E0D8138DC010926C03F8
:1006200080916C03CC0FC82BC0936C0380916B033B
:10063000813009F084C010926B030E94BD026B01EF
:100640007C0180916C038093BB0080919303909117
:100650009403A0919503B0919603892B8A2B8B2B41
:10066000A1F00E94BD020091930310919403209188
:100670009503309196036C197D098E099F09061721
:1006800017072807390708F442C08091BC0083FD92
:10069000D8CF85EC8093BC000E94BD026B017C0129
:1006A00080919103823009F44CC080918F038F3F79
:1006B00009F469C080918F03803209F466C080918B
:1006C0008F03803309F463C084E026C080919303D4
:1006D00090919403A0919503B0919603892B8A2B56
:1006E0008B2B09F483CF0E94BD02009193031091DC
:1006F000940320919503309196036C197D098E091E
:100700009F09061717072807390708F06FCF809150
:1007100092030E94120285E0109298031092BA038D
:1007200010929703DF91CF911F910F91FF90EF905F
:10073000DF90CF9008959D9191938F5F6DCF85EE5F
:10074000A9CF8091930390919403A0919503B091C8
:100750009603892B8A2B8B2B09F4A2CF0E94BD0212
:100760000091930310919403209195033091960387
:100770006C197D098E099F09061717072807390785
:1007800008F08ECFC4CF80E0C7CF82E0C5CF83E032
:10079000C3CF8F929F92AF92BF92CF92DF92EF9290
:1007A000FF924B015C010E94BD026B017C010E9423
:1007B000BD026C197D098E099F09683E7340810551
:1007C0009105A8F321E0821A9108A108B10888EEEA
:1007D000C80E83E0D81EE11CF11C81149104A10411
:1007E000B10429F7FF90EF90DF90CF90BF90AF90CA
:1007F0009F908F9008950895AF92BF92CF92DF920D
:10080000EF92FF920F931F93CF93DF936C017B01C5
:100810008B01040F151FEB015E01AE18BF08C01756
:10082000D10759F06991D601ED91FC910190F081C9
:10083000E02DC6010995892B79F7C501DF91CF918C
:100840001F910F91FF90EF90DF90CF90BF90AF90EE
:100850000895FC01538D448D252F30E0842F90E0C6
:10086000821B930B541710F0CF96089501970895AB
:10087000FC01918D828D981761F0A28DAE0FBF2F74
:10088000B11D5D968C91928D9F5F9F73928F90E0CA
:1008900008958FEF9FEF0895FC01918D828D981739
:1008A00031F0828DE80FF11D858D90E008958FEF76
:1008B0009FEF0895FC01918D228D892F90E0805C3F
:1008C0009F4F821B91098F739927089587EC93E0BE
:1008D0000E945A0421E0892B09F420E0822F089518
:1008E00080E090E0892B29F00E94660481110C942D
:1008F00000000895FC01A48DA80FB92FB11DA35AC3
:10090000BF4F2C91848D90E001968F739927848F2F
:10091000A689B7892C93A089B1898C918370806452
:100920008C93938D848D981306C00288F389E02DF3
:1009300080818F7D80830895EF92FF920F931F93A4
:10094000CF93DF93EC0181E0888F9B8D8C8D981382
:100950001AC0E889F989808185FF15C09FB7F8948E
:10096000EE89FF896083E889F989808183708064DA
:1009700080839FBF81E090E0DF91CF911F910F9125
:10098000FF90EF900895F62E0B8D10E00F5F1F4F34
:100990000F731127E02E8C8D8E110CC00FB607FC43
:1009A000FACFE889F989808185FFF5CFCE010E94D1
:1009B0007A04F1CFEB8DEC0FFD2FF11DE35AFF4FC1
:1009C000F0829FB7F8940B8FEA89FB89808180625F
:1009D000CFCFCF93DF93EC01888D8823B9F0AA891C
:1009E000BB89E889F9898C9185FD03C0808186FDEA
:1009F0000DC00FB607FCF7CF8C9185FFF2CF808139
:100A000085FFEDCFCE010E947A04E9CFDF91CF912F
:100A10000895FC0123812223F1F0262F6181609546
:100A200062236083828191E0909397038093B9035E
:100A3000109298031092BA038BEB93E00E94450149
:100A40000E94E202282F30E081E090E0232B11F099
:100A500090E080E0089530E020E0F6CFEF92FF9242
:100A60000F931F93CF938C01FC0184E0C0E0262FED
:100A700030E060FF02C09589C92BB9017595679573
:100A8000815031968111F3CF413011F4F80144893E
:100A9000F8016585C62BC42B7801FEE0EF0EF11C32
:100AA000F80162896C2BC7010E940905F80162896F
:100AB00060956C23C701CF911F910F91FF90EF902C
:100AC0000C9409050F931F93CF93DF93062F0F709C
:100AD000423041F440E0602FDF91CF911F910F91A0
:100AE0000C942E05142FEC0170E084E07595679549
:100AF0008A95E1F7CE010E942E05412F602FCE018D
:100B0000EBCFFC0184858823A1F021853285211556
:100B1000310521F4611107C0158606C02130310569
:100B2000D9F76111F9CF85876585CF010E960C94B1
:100B30000905089521E001C0220F6A95EAF7DC015A
:100B40001C962C931C971A965C934E931997ED91D3
:100B5000FC910484F585E02D60E00994DC01ED91C1
:100B6000FC910684F785E02D41E0099581E090E055
:100B70000895DC01ED91FC910684F785E02D40E0BD
:100B800009940F931F93CF93DF93CDB7DEB72897C8
:100B90000FB6F894DEBF0FBECDBF009104011091D7
:100BA000050120910601309107010D831E832F83DB
:100BB0003887009108011091090120910A013091B4
:100BC0000B0109831A832B833C8390917604691768
:100BD00010F06FEF690F262F30E0409177042C0F53
:100BE0003D1FF901403199F4943089F46181680F17
:100BF00060688FE694E028960FB6F894DEBF0FBECB
:100C0000CDBFDF91CF911F910F910C94B9056581F4
:100C1000EECF61E00E94B9058BE39FE10197F1F708
:100C200008950F931F93CF93DF93EC01423018F098
:100C30008C8188608C834F836887222329F0413020
:100C400019F48C8184608C8364E670E080E090E02D
:100C50000E94C9036C8164FD57C0E881F981068454
:100C6000F785E02D42E063E0CE0109958BE496E440
:100C70000197F1F7E881F9810684F785E02D42E0DC
:100C800063E0CE01099503E512E0C8010197F1F791
:100C9000E881F9810684F785E02D42E063E0CE012A
:100CA0000995C8010197F1F7E881F9810684F78574
:100CB000E02D42E062E0CE010995C8010197F1F70D
:100CC0006C816062CE010E94B9058BEE90E00197C5
:100CD000F1F784E08D836CE0CE010E94B905CE016E
:100CE0000E94090682E08E8366E0CE010E94B9056B
:100CF000E881F9810484F585E02D6FEFCE01DF9165
:100D0000CF911F910F9109946062CE010E94B905A5
:100D10008BE496E40197F1F76C816062CE010E944A
:100D2000B90503E512E0C8010197F1F76C81606233
:100D3000CE010E94B905C1CFEF92FF920F931F938E
:100D4000CF93DF93EC01062FF42EE22E8B85888B58
:100D50001092220310922103109298031092BA036A
:100D60000E94F4018CEE90E090934503809344033D
:100D70008DEE90E09093490380934803888911E0B9
:100D8000109397038093B9030E94E20281111CC063
:100D9000198B8BEB93E00E94FE008E878989882354
:100DA00039F01F861C8260E0CE010E960E94090574
:100DB0002E2D4F2D602FCE01DF91CF911F910F91DE
:100DC000FF90EF900C941106198AE8CF08950895CA
:100DD000089590E080E008952FB7F8948091F9028B
:100DE0009091FA02A091FB02B091FC022FBF4091BA
:100DF000E2025091E3026091E4027091E502841BEB
:100E0000950BA60BB70B4597A105B10508F464C077
:100E10002FB7F8948091F9029091FA02A091FB0209
:100E2000B091FC022FBF8093E2029093E302A09363
:100E3000E402B093E502809169048823A1F08091D7
:100E40006E04853009F448C080916E04833009F047
:100E500043C080916A0490916B04019690936B0457
:100E600080936A04089580916E048530E9F0809142
:100E70006E048630C9F080916E04833049F580910C
:100E80006A0490916B04019690936B0480936A04BA
:100E900020916A0430916B0480916C0490916D04F0
:100EA000281739078CF418C080916A0490916B045C
:100EB000019790936B0480936A0480916A049091E7
:100EC0006B041816190644F081E08093F30208952C
:100ED00080916E04843099F20895FB010190002006
:100EE000E9F73197AF01461B570BDC01ED91FC91FF
:100EF0000280F381E02D0994CF93DF93C4E6D4E020
:100F000085E08A8761E08FE694E00E9481058FE6A4
:100F100094E00E94090661E080E00E94C10564E45B
:100F200071E08FE694E00E946D0763E571E087EC65
:100F300093E00E946D0770E060E086E00E9464022A
:100F40006AEA70E085E00E94640281E090E09983A3
:100F50008883DF91CF9108958F929F92AF92BF9235
:100F60000F931F93CF93DF93CDB7DEB7A1970FB643
:100F7000F894DEBF0FBECDBF19A2423008F44AE09C
:100F80008E010F5D1F4F842E912CB12CA12CA50139
:100F900094010E943E11E62FB901CA01EA3044F5DE
:100FA000E05DD801EE938D01232B242B252B79F7BF
:100FB00090E080E0109769F0FD0101900020E9F7D2
:100FC0003197AF014A1B5B0BBD018FE694E00E9495
:100FD000FC03A1960FB6F894DEBF0FBECDBFDF9124
:100FE000CF911F910F91BF90AF909F908F900895D8
:100FF000E95CD7CFCF92DF92EF92FF92CF93DF934E
:101000006C01990FEE08FF08F7FE19C06DE28FE63C
:1010100094E00E94AE05EC0166277727CB016C199E
:101020007D098E099F094AE00E94AC078C0F9D1F25
:10103000DF91CF91FF90EF90DF90CF9008954AE03D
:10104000C701B601DF91CF91FF90EF90DF90CF9075
:101050000C94AC0785ED8093BC0080919303909134
:101060009403A0919503B09196030796A11DB11D1D
:1010700023E0B695A795979587952A95D1F7209166
:10108000BC0024FD03C01092910308954091930386
:10109000509194036091950370919603452B462BD4
:1010A000472B69F30097A105B10541F025E32A9587
:1010B000F1F700000197A109B109E1CF80919203F6
:1010C0000C9412020E9466110C943011CF93DF939E
:1010D00061E08FE694E00E9481058FE694E00E9433
:1010E000090660E080E00E94C10565E672E08FE6D7
:1010F00094E00E946D0765E671E087EC93E00E9442
:101100006D0761E080E00E94C1056DE671E08FE649
:1011100094E00E946D0770E060E086E00E94640247
:1011200070E060E085E00E946402C4E6D4E01F82C3
:101130001E82198618866E817F8190E080E00E9471
:1011400064086885798581E090E00E946408A8952C
:10115000DF91CF91089580916904882309F45AC0E2
:1011600070E060E086E00E94640270E060E085E08C
:101170000E94640210926504109264048FE694E069
:101180000E94090660E080E00E94C1056CE771E002
:101190008FE694E00E946D076CE871E087EC93E0C5
:1011A0000E946D0761E080E00E94C1056BE971E07B
:1011B0008FE694E00E946D0760E08AE00E94C1051E
:1011C00080916A0490916B040E94FA0780916A04EE
:1011D00090916B0490936D0480936C0484E08093F1
:1011E0006E0460916A0470916B0490E080E00E944C
:1011F000640860916C0470916D0481E090E00E943D
:10120000640860916E0482E090E00E94640810928D
:101210006904089561E08FE694E00E9481058FE6FD
:1012200094E00E94090660E080E00E94C10568EA3F
:1012300071E08FE694E00E946D0781E0809369047D
:101240006AEA70E086E00E94640270E060E085E097
:101250000E94640281E090E09093650480936404AE
:1012600068EE73E080E090E00C94C903809169041B
:10127000882309F45AC070E060E086E00E946402AE
:1012800070E060E085E00E946402109265041092B4
:1012900064048FE694E00E94090660E080E00E940A
:1012A000C10568EB71E08FE694E00E946D0766EC83
:1012B00071E087EC93E00E946D0761E080E00E949E
:1012C000C10567ED71E08FE694E00E946D0760E074
:1012D0008AE00E94C10580916A0490916B040E948B
:1012E000FA0710926D0410926C0410926D04109223
:1012F0006C0482E080936E0460916A0470916B04C8
:1013000090E080E00E94640860916C0470916D042C
:1013100081E090E00E94640860916E0482E090E0B9
:101320000E94640810926904089561E08FE694E0D9
:101330000E9481058FE694E00E94090660E080E04B
:101340000E94C10565EE71E08FE694E00E946D0792
:1013500081E08093690410926B0410926A041092E9
:101360006D0410926C0485E080936E0460916A04B1
:1013700070916B0490E080E00E94640860916C04BE
:1013800070916D0481E090E00E94640860916E04A9
:1013900082E090E00E94640881E090E09093650410
:1013A0008093640470E060E086E00E9464026AEA70
:1013B00070E085E00E94640268EE73E080E090E0F7
:1013C0000C94C9030E94B4008839934044F461E04E
:1013D00080E10E94330261E080E10C94C60160E08C
:1013E00080E10E9433020E94B400893E93401CF1C8
:1013F00084E080936E0460916A0470916B0490E0C5
:1014000080E00E94640860916C0470916D0481E03A
:1014100090E00E94640860916E0482E090E00E9477
:10142000640861E08AE00E94C10566EF71E087EC24
:1014300093E00C946D0708951F920F920FB60F92D0
:1014400011242F933F934F935F936F937F938F93C9
:101450009F93AF93BF93EF93FF938091B900887FE1
:10146000803609F44AC0F0F5883209F4A7C018F5AF
:10147000803109F49BC0B8F4882309F4F9C088309E
:1014800009F494C0FF91EF91BF91AF919F918F911B
:101490007F916F915F914F913F912F910F900FBE70
:1014A0000F901F901895883109F488C0803251F749
:1014B00080938F0314C0803409F49DC040F48033BE
:1014C000B9F38833F9F680938F0385ECB0C080358B
:1014D00009F485C0883509F496C0883499F60E94CD
:1014E0002A08D0CF883909F48CC038F5883729F01C
:1014F00050F4883611F0803729F683E08093910309
:1015000010926A0357C0883809F47BC0803919F0FB
:10151000803809F0B7CF80916A03803208F071C03B
:10152000E0916A0381E08E0F80936A038091BB0093
:10153000F0E0E65BFC4F80833DC0803B39F0E0F497
:10154000803A09F479C0883A09F09CCF84E080930E
:1015500091031092470310924603E0914403F091E7
:10156000450309958091460381110FC081E0809366
:1015700046031092240309C0803C09F4A6CF883C9E
:1015800009F4A3CF883B09F07DCFE091470381E0C8
:101590008E0F80934703F0E0EC5DFC4F80818093D9
:1015A000BB00909147038091460329C080916C0352
:1015B0008093BB0085EC8093BC0064CF90918E0338
:1015C00080918D03981758F5E0918E0381E08E0F7E
:1015D00080938E03F0E0E359FC4F8081E9CFE091E6
:1015E0008E0381E08E0F80938E038091BB00F0E02C
:1015F000E359FC4F808390918E0380918D0398175F
:10160000C8F285E8D8CFE0918E0381E08E0F8093F9
:101610008E038091BB00F0E0E359FC4F8083809102
:10162000900381115CCF81E080936B0384EA809307
:10163000BC001092910326CF85EC8093BC001092E1
:10164000910380916A03803230F4E0916A03F0E004
:10165000E65BFC4F108260916A0370E0E091480302
:10166000F09149038AE493E0099510926A030ACF46
:1016700010928F0334CF1F920F920FB60F92112446
:101680002F933F938F939F93AF93BF938091F902D2
:101690009091FA02A091FB02B091FC023091F80205
:1016A00023E0230F2D3758F50196A11DB11D20937E
:1016B000F8028093F9029093FA02A093FB02B09390
:1016C000FC028091FD029091FE02A091FF02B09178
:1016D00000030196A11DB11D8093FD029093FE02AF
:1016E000A093FF02B0930003BF91AF919F918F91A0
:1016F0003F912F910F900FBE0F901F90189526E8E5
:10170000230F0296A11DB11DD2CF1F920F920FB6CB
:101710000F9211242F933F934F935F936F937F9377
:101720008F939F93AF93BF93EF93FF93E091020149
:10173000F09103010995FF91EF91BF91AF919F91B6
:101740008F917F916F915F914F913F912F910F906A
:101750000FBE0F901F9018951F920F920FB60F9209
:1017600011242F933F934F935F936F937F938F93A6
:101770009F93AF93BF93EF93FF93E0910001F0919C
:1017800001010995FF91EF91BF91AF919F918F91C9
:101790007F916F915F914F913F912F910F900FBE6D
:1017A0000F901F9018951F920F920FB60F92112451
:1017B0002F933F934F935F936F937F938F939F9359
:1017C000AF93BF93EF93FF9387EC93E00E947A046B
:1017D000FF91EF91BF91AF919F918F917F916F9109
:1017E0005F914F913F912F910F900FBE0F901F90DF
:1017F00018951F920F920FB60F9211242F938F936B
:101800009F93EF93FF93E091D703F091D8038081EA
:10181000E091DD03F091DE0382FD1BC09081809199
:10182000E0038F5F8F732091E103821741F0E09115
:10183000E003F0E0E953FC4F958F8093E003FF91C4
:10184000EF919F918F912F910F900FBE0F901F904E
:1018500018958081F4CF1F920F920FB60F9211242A
:101860002F933F934F935F936F937F938F939F93A8
:10187000AF93BF93EF93FF938091EC029091ED02B1
:101880008093B2008091EF029091F002A091F1025A
:10189000B091F2020196A11DB11D8093EF029093C9
:1018A000F002A093F102B093F2028091EF029091C6
:1018B000F002A091F102B091F2024091E802509141
:1018C000E9026091EA027091EB0284179507A6077E
:1018D000B70710F18091EE0281111EC081E0809364
:1018E000EE028091EF029091F002A091F102B0918E
:1018F000F202841B950BA60BB70B8093EF0290931B
:10190000F002A093F102B093F202E091E602F091AE
:10191000E70209951092EE02FF91EF91BF91AF910E
:101920009F918F917F916F915F914F913F912F91F7
:101930000F900FBE0F901F901895EBEBF3E0138202
:10194000128288EE93E0A0E0B0E084839583A683C2
:10195000B78320E131E031832083E7ECF3E01382A9
:10196000128284839583A683B78382E291E0918378
:10197000808385EC90E09587848784EC90E097875E
:10198000868780EC90E0918B808B81EC90E0938B4C
:10199000828B82EC90E0958B848B86EC90E0978B29
:1019A000868B118E128E138E148EEFE6F4E0138266
:1019B000128284E391E091838083108A8FEF87877E
:1019C0001686118A87E28387148615861286118609
:1019D00084E0828B82E0838B81E0848B80E1858B45
:1019E00080E2868B80E4878B80E8808F50E040E047
:1019F00063E0CF010E949A05E4E6F4E011821082D0
:101A0000138212821582178216821186108608951B
:101A1000789484B5826084BD84B5816084BD85B5C9
:101A2000826085BD85B5816085BD80916E008160D5
:101A300080936E001092810080918100826080937B
:101A4000810080918100816080938100809180007D
:101A50008160809380008091B10084608093B100A8
:101A60008091B00081608093B00080917A008460A2
:101A700080937A0080917A00826080937A008091CE
:101A80007A00816080937A0080917A0080688093E8
:101A90007A001092C1000E948C0020E042E060E1D8
:101AA0008FE694E00E949C068FE694E00E9409066F
:101AB00060E083E00E94C10560E08FE694E00E9450
:101AC00081051092680490E080E00E94281190E067
:101AD00090936B0480936A0481E090E00E94281147
:101AE00090E090936D0480936C0482E090E00E94FB
:101AF000281180936E0461E085E00E94330261E06A
:101B000086E00E94330260E087E00E94330260E0DA
:101B100083E00E94330260E084E00E94330260E0D0
:101B20008AE00E94330260E08BE00E94330260E0B2
:101B30008CE00E94330260E08EE00E94330260E09D
:101B400082E00E9433020E948C0088E199E20FB685
:101B5000F894A895809360000FBE909360008CEE7F
:101B600096E09093010180930001809169008C7F41
:101B7000826080936900E89A8AE090E0A0E0B0E09B
:101B80008093E8029093E902A093EA02B093EB02FB
:101B900082EE99E09093E7028093E60280917000D4
:101BA0008E7F809370008091B0008C7F8093B00016
:101BB0008091B100877F8093B1008091B6008F7DC6
:101BC0008093B600809170008D7F8093700080912B
:101BD000B10084608093B1008091B1008C7F8093CC
:101BE000B10086E090E09093ED028093EC021092B9
:101BF000EF021092F0021092F1021092F202109293
:101C0000EE028091EC029091ED028093B2008091FF
:101C100070008160809370006BE072E087EC93E06D
:101C20000E946D0700E010E0C1E0D6E0EE24E394EE
:101C3000F12C80916804811185C070E060E086E03D
:101C40000E94640270E060E085E00E94640260E04F
:101C50008FE694E00E9481058FE694E00E940906D9
:101C600083E00E949D01019709F05FC083E00E941C
:101C70009D010197D9F3C093680470E060E086E0AD
:101C80000E94640270E060E085E00E94640261E00E
:101C90008FE694E00E94810580916E048630D1F435
:101CA00060E080E00E94C10565E172E08FE694E0AB
:101CB0000E946D0764E272E087EC93E00E946D077A
:101CC00061E080E00E94C10565E372E08FE694E088
:101CD0000E946D0780916E048430D1F460E080E052
:101CE0000E94C10561E472E08FE694E00E946D07F6
:101CF0006FE472E087EC93E00E946D0761E080E0A2
:101D00000E94C1056BE971E08FE694E00E946D07C7
:101D100080916E04811109C061E00E94C1056FE5E8
:101D200072E08FE694E00E946D07A89501151105F9
:101D300009F47FCF0E946604882309F47ACF0E94B9
:101D4000000077CF80916804813079F7E0916E04CC
:101D5000E83058F70E2E000CFF0BEF54F14F0C94A7
:101D60006011B90EE50E720FAB0F10103C10A010F1
:101D7000F41070E060E086E00E94640270E060E0D1
:101D800085E00E94640283E00E949D01019739F47E
:101D900083E00E949D010197D9F3109268048AE0C4
:101DA0000E949D01019709F0C0CF8AE00E949D0129
:101DB0000197D9F30E946608C0936E0460916E0487
:101DC00082E090E00E946408B0CF8AE00E949D010A
:101DD000019709F06BC02FB7F8948091F9029091A8
:101DE000FA02A091FB02B091FC022FBF8093F40293
:101DF0009093F502A093F602B093F7028AE00E9456
:101E00009D01019709F052C02FB7F8948091F90213
:101E10009091FA02A091FB02B091FC022FBF409179
:101E2000F4025091F5026091F6027091F702841B62
:101E3000950BA60BB70B88389341A105B105F0F2BD
:101E400061E08FE694E00E9481058FE694E00E94B5
:101E5000090660E080E00E94C1056BE672E08FE653
:101E600094E00E946D0760ED77E080E090E00E94D2
:101E7000C90360E080E00E94C10569E772E08FE677
:101E800094E00E946D0761E080E00E94C1056AE86D
:101E900072E08FE694E00E946D0710926E046091EC
:101EA0006E0482E090E00E946408A8CF83E00E9464
:101EB0009D01019739F483E00E949D010197D9F3B8
:101EC000109268048CE00E949D01019709F02DCFCB
:101ED0008CE00E949D010197D9F3109269040E9441
:101EE000360923CF8BE00E949D01019791F48BE08E
:101EF0000E949D010197D9F383E080936E04609165
:101F00006E0482E090E00E946408109269040E94CE
:101F1000AB088AE00E949D01019779F48AE00E9453
:101F20009D010197D9F30E946608C0936E046091E9
:101F30006E0482E090E00E94640883E00E949D01AC
:101F4000019709F0F2CE83E00E949D010197D9F339
:101F500010926804EACE8091F302882389F11092EE
:101F6000F30270E060E086E00E94640270E060E0EE
:101F700085E00E94640210926504109264048FE66A
:101F800094E00E94090660E080E00E94C10561E4DF
:101F900072E08FE694E00E946D0761E080E00E94AD
:101FA000C1056BE971E08FE694E00E946D076AE974
:101FB00072E087EC93E00E946D0784E080936E04EA
:101FC00080916904882361F08BE00E949D01019754
:101FD00039F48BE00E949D010197D9F30E94AB0870
:101FE0008AE00E949D01019779F48AE00E949D0198
:101FF0000197D9F30E946608C0936E0460916E0445
:1020000082E090E00E94640883E00E949D010197B5
:1020100009F08BCE83E00E949D010197D9F398CF00
:1020200084E00E949D01019739F484E00E949D01A3
:102030000197D9F30E947C078AE00E949D010197D5
:1020400079F48AE00E949D010197D9F30E94660805
:10205000C0936E0460916E0482E090E00E94640878
:1020600083E00E949D01019709F05FCE83E00E940A
:102070009D010197D9F36CCF8091F302882381F100
:102080001092F30270E060E086E00E94640270E06B
:1020900060E085E00E94640210926504109264047E
:1020A0008FE694E00E94090660E080E00E94C1058E
:1020B00067EA72E08FE694E00E946D0761E080E0DD
:1020C0000E94C10565E372E08FE694E00E946D070F
:1020D00065EB72E087EC93E00E946D07D0936E048D
:1020E00080916904882361F08CE00E949D01019732
:1020F00039F48CE00E949D010197D9F30E943609C2
:102100008AE00E949D01019779F48AE00E949D0176
:102110000197D9F30E946608C0936E0460916E0423
:1021200082E090E00E94640883E00E949D01019794
:1021300009F0FBCD83E00E949D010197D9F308CF00
:1021400087E00E949D01019779F587E00E949D013B
:102150000197D9F383E080936E0461E08FE694E009
:102160000E9481058FE694E00E94090661E080E00C
:102170000E94C10563EC72E08FE694E00E946D0757
:1021800061ED72E087EC93E00E946D076AEA70E00F
:1021900086E00E94640270E060E085E00E946402D4
:1021A000F0926504E09264048AE00E949D01019728
:1021B00079F48AE00E949D010197D9F30E94660894
:1021C000C0936E0460916E0482E090E00E94640807
:1021D00083E00E949D01019709F0A7CD83E00E9452
:1021E0009D010197D9F3B4CE84E00E949D0101972F
:1021F00079F484E00E949D010197D9F30E947C0745
:10220000D0936E0460916E0482E090E00E946408B6
:102210008AE00E949D01019779F48AE00E949D0165
:102220000197D9F30E946608C0936E0460916E0412
:1022300082E090E00E94640883E00E949D01019783
:1022400009F073CD83E00E949D010197D9F380CE00
:10225000F999FECF92BD81BDF89A992780B508956E
:10226000262FF999FECF1FBA92BD81BD20BD0FB6B2
:10227000F894FA9AF99A0FBE01960895A1E21A2EDF
:10228000AA1BBB1BFD010DC0AA1FBB1FEE1FFF1F1A
:10229000A217B307E407F50720F0A21BB30BE40B6A
:1022A000F50B661F771F881F991F1A9469F76095B1
:1022B0007095809590959B01AC01BD01CF0108956B
:1022C000EE0FFF1F0590F491E02D099481E090E05E
:0A22D000F8940C946B11F894FFCF02
:1022DA00FB03FB03004014540040105000000000B0
:1022EA0045011801E906EE001101FE00EF000000A9
:1022FA0000009C04FC032904E9045A0438044C0431
:10230A0000000000AE05FC03E906E8069C069A05F3
:10231A0081056205566172616C2064657363656E3E
:10232A00646F00566172616C2044657363656E6404
:10233A006F21200A005245534554200A0073616CEC
:10234A00766172206465736369646100456C6576C1
:10235A0061646F722050726F6E746F005375626998
:10236A0064612053616C7661200A005465636C6570
:10237A00206465736365720053616C76616E646F85
:10238A0020537562696461004465736369646120FE
:10239A0053616C76610044657363696461205361BB
:1023AA006C766121200A0073616C76617220737504
:1023BA00626964610053616C76616E646F20446582
:1023CA0073636964610042726F776E4F757420445B
:1023DA006574656374656421200A004C6967616EDF
:1023EA00646F200A00566172616C20656D2062611B
:1023FA0069786F00566172616C20656D206261694F
:10240A00786F200A005465636C652073756269727F
:10241A0000566172616C20656D2063696D610056BA
:10242A006172616C20656D2063696D61200A0054D8
:10243A0065636C65205245534554005245534554D3
:10244A00204641425249434100456C657661646FBA
:10245A0072657320486172616800507265737369AE
:10246A006F6E652052657365740046696D207375D9
:10247A0062696461200A00566172616C20656D624E
:10248A006169786F0046696D206465736369646188
:10249A00200A00566172616C20537562696E646F1E
:1024AA0000566172616C20537562696E646F2120F7
:0224BA000A0016
:00000001FF
