:100000000C9462000C948A000C948A000C948A0070
:100010000C948A000C948A000C948A000C948A0038
:100020000C948A000C948A000C948A000C948A0028
:100030000C948A000C948A000C948A000C948A0018
:100040000C946D060C948A000C943B060C941506D7
:100050000C948A000C948A000C948A000C948A00F8
:100060000C94B7060C948A000000000024002700BE
:100070002A0000000000250028002B0000000000DE
:1000800023002600290004040404040404040202DA
:100090000202020203030303030301020408102007
:1000A0004080010204081020010204081020000012
:1000B0000008000201000003040700000000000027
:1000C0000000D20711241FBECFEFD8E0DEBFCDBFA6
:1000D00012E0A0E0B1E0E0E2FFE102C005900D9285
:1000E000AC36B107D9F723E0ACE6B2E001C01D920F
:1000F000A53DB207E1F710E0C2E6D0E004C02197C9
:10010000FE010E94880FC136D107C9F70E942C0852
:100110000C948E0F0C940000AF92BF92CF92DF929E
:10012000EF92FF920F931F93CF93DF936C017B01AC
:100130008B01040F151FEB015E01AE18BF08C0173D
:10014000D10759F06991D601ED91FC910190F081B0
:10015000E02DC6010995892B79F7C501DF91CF9173
:100160001F910F91FF90EF90DF90CF90BF90AF90D5
:100170000895FC01538D448D252F30E0842F90E0AD
:10018000821B930B541710F0CF9608950197089592
:10019000FC01918D828D981761F0A28DAE0FBF2F5B
:1001A000B11D5D968C91928D9F5F9F73928F90E0B1
:1001B00008958FEF9FEF0895FC01918D828D981720
:1001C00031F0828DE80FF11D858D90E008958FEF5D
:1001D0009FEF0895FC01918D228D892F90E0805C26
:1001E0009F4F821B91098F73992708958CE193E0AB
:1001F0000E94EA0021E0892B09F420E0822F089573
:1002000080E090E0892B29F00E94F60081110C9487
:1002100000000895FC01A48DA80FB92FB11DA35AA9
:10022000BF4F2C91848D90E001968F739927848F16
:10023000A689B7892C93A089B1898C918370806439
:100240008C93938D848D981306C00288F389E02DDA
:1002500080818F7D80830895EF92FF920F931F938B
:10026000CF93DF93EC0181E0888F9B8D8C8D981369
:100270001AC0E889F989808185FF15C09FB7F89475
:10028000EE89FF896083E889F989808183708064C1
:1002900080839FBF81E090E0DF91CF911F910F910C
:1002A000FF90EF900895F62E0B8D10E00F5F1F4F1B
:1002B0000F731127E02E8C8D8E110CC00FB607FC2A
:1002C000FACFE889F989808185FFF5CFCE010E94B8
:1002D0000A01F1CFEB8DEC0FFD2FF11DE35AFF4F1B
:1002E000F0829FB7F8940B8FEA89FB898081806246
:1002F000CFCFCF93DF93EC01888D8823B9F0AA8903
:10030000BB89E889F9898C9185FD03C0808186FDD0
:100310000DC00FB607FCF7CF8C9185FFF2CF80811F
:1003200085FFEDCFCE010E940A01E9CFDF91CF9189
:100330000895833081F028F4813099F08230A9F05B
:1003400008958730A9F08830C9F08430B1F48091E5
:1003500080008F7D03C0809180008F778093800024
:10036000089584B58F7784BD089584B58F7DFBCFC4
:100370008091B0008F778093B00008958091B00095
:100380008F7DF9CFCF93DF93282F30E0F901E2552D
:10039000FF4F8491F901E656FF4FD491F901EA57D6
:1003A000FF4FC491CC23A1F081110E949901EC2F41
:1003B000F0E0EE0FFF1FE458FF4FA591B491EC91D0
:1003C000ED2381E090E009F480E0DF91CF91089582
:1003D00080E090E0FACF1F93CF93DF93282F30E097
:1003E000F901E255FF4F8491F901E656FF4FD49190
:1003F000F901EA57FF4FC491CC23A9F0162F8111C0
:100400000E949901EC2FF0E0EE0FFF1FEE58FF4F16
:10041000A591B4918FB7F894EC91111108C0D095C3
:10042000DE23DC938FBFDF91CF911F910895DE2BE8
:10043000F8CFCF93DF9390E0FC01E656FF4F249175
:100440008A579F4FFC0184918823D1F090E0880F58
:10045000991FFC01E859FF4FA591B491FC01EE589A
:10046000FF4FC591D49161110EC09FB7F8948C9144
:10047000E22FE0958E238C932881E223E8839FBFAF
:10048000DF91CF9108958FB7F894EC91E22BEC9324
:100490008FBFF6CF1F93CF93DF93182FEB0161E04F
:1004A0000E941902209739F460E0812FDF91CF91EB
:1004B0001F910C94EB01E12FF0E0E255FF4FE49126
:1004C000E33039F148F4E130B9F0E230E9F0C03816
:1004D000D10554F361E0E9CFE73029F1E83059F173
:1004E000E430A9F780918000806280938000D093EF
:1004F0008B00C0938A0004C084B5806884BDC7BDEA
:10050000DF91CF911F91089584B5806284BDC8BDED
:10051000F7CF80918000806880938000D09389001D
:10052000C0938800EDCF8091B00080688093B000C8
:10053000C093B300E5CF8091B00080628093B0009B
:10054000C093B400DDCF3FB7F8948091060390913B
:100550000703A0910803B091090326B5A89B05C025
:100560002F3F19F00196A11DB11D3FBFBA2FA92F32
:10057000982F8827BC01CD01620F711D811D911D2F
:1005800042E0660F771F881F991F4A95D1F708959B
:100590008F929F92AF92BF92CF92DF92EF92FF9293
:1005A0004B015C010E94A3026B017C010E94A3022B
:1005B0006C197D098E099F09683E7340810591057C
:1005C000A8F321E0821A9108A108B10888EEC80EAC
:1005D00083E0D81EE11CF11C81149104A104B10434
:1005E00029F7FF90EF90DF90CF90BF90AF909F9052
:1005F0008F90089508951F93CF93DF93C1E0C09328
:100600007102882399F1D091B8001091BA008091BD
:10061000BC008A7B8093BC0060E082E10E94EB0119
:1006200060E083E10E94EB011092DB02C093DA02EA
:100630001092B50261E082E10E94EB0161E083E18A
:100640000E94EB018091B9008E7F8093B900809168
:10065000B9008D7F8093B90088E48093B80085E469
:100660008093BC001093BA00D093B800DF91CF9173
:100670001F91089520919202260F3327331F2132B4
:100680003105ECF42091DB02FC0190E080E02430A5
:1006900069F082E00895A09192022191AC014E5838
:1006A0005D4FA40FB52FB11D2C930196861798F3BB
:1006B00080919202680F6093920280E0089581E039
:1006C000089508958FEF9FEF08958FEF9FEF08959E
:1006D0008091700290E09195819591090895CF9253
:1006E000DF92EF92FF920F931F93CF93DF937C01E2
:1006F000CB018A012091E102222389F0EB016B01F9
:10070000C40ED51ECC15DD0569F06991D701ED91B8
:10071000FC910190F081E02DC7010995F3CF642F82
:100720000E943A03C801DF91CF911F910F91FF9072
:10073000EF90DF90CF900895CF93DF931F92CDB7C6
:10074000DEB769832091E1022223F9F020910403AE
:10075000203258F021E030E0FC013383228390E026
:1007600080E00F90DF91CF9108958091E202E82F11
:10077000F0E0ED51FD4F998190838F5F8093E2020D
:100780008093040381E090E0ECCF61E0CE0101961C
:100790000E943A03F7CFCF92DF92EF92FF920F932E
:1007A0001F93CF93DF93FC01C48121E02093E102EA
:1007B000C09303031092E202109204038385682B16
:1007C00089EB93E00E949C03D0910403D13208F09E
:1007D00092C00E94A3026B017C018091DB02811117
:1007E00065C082E08093DB0281E08093DA028FEFC4
:1007F0008093D9021092D802D093D702A3EEB2E030
:10080000E7EBF2E080E0D81385C01092B602809149
:10081000B602CC0FC82BC093B6028091B5028130CE
:1008200009F07CC01092B5020E94A3026B017C010A
:100830008091B6028093BB008091DD029091DE0230
:10084000A091DF02B091E002892B8A2B8B2B99F0CB
:100850000E94A3020091DD021091DE022091DF02CE
:100860003091E0026C197D098E099F090617170760
:1008700028073907E0F18091BC0083FDD9CF85ECD2
:100880008093BC000E94A3026B017C018091DB027B
:10089000823009F445C08091D9028F3F61F1809187
:1008A000D902803241F18091D90225C08091DD02C8
:1008B0009091DE02A091DF02B091E002892B8A2B99
:1008C0008B2B09F48ACF0E94A3020091DD021091C4
:1008D000DE022091DF023091E0026C197D098E0961
:1008E0009F09061717072807390708F076CF809168
:1008F000DC020E94FB021092E202109204031092AA
:10090000E102DF91CF911F910F91FF90EF90DF9067
:10091000CF9008959D9191938F5F75CF85EEB0CF65
:100920008091DD029091DE02A091DF02B091E002A1
:10093000892B8A2B8B2B09F4A9CF0E94A30200914B
:10094000DD021091DE022091DF023091E0026C198D
:100950007D098E099F09061717072807390708F030
:1009600095CFC5CF88E08093D40360E089EC93E015
:100970000C94CB0390E080E00895FC0101900020EE
:10098000E9F73197AF01481B590BBC0189EC93E0A3
:100990000C948C000F931F93CF938C01C62F0E9451
:1009A000CB036C2F6460C8010E94CB036C2F6B7F5C
:1009B000C8010E94CB0383EC90E00197F1F7CF913F
:1009C0001F910F9108950F931F93CF93DF938C0185
:1009D000D62FC42F607F642B0E94CA0480E1D89F69
:1009E000B00111246C2BC801DF91CF911F910F91A1
:1009F0000C94CA0440E061E089EC93E00E94E304B7
:100A00008BE39FE10197F1F70895CF93DF93CDB783
:100A1000DEB728970FB6F894DEBF0FBECDBF98E0C3
:100A2000E0E0F1E0DE01119601900D929A95E1F778
:100A30009091D103961708F46FEF262F30E0220F24
:100A4000331F41E050E04C0F5D1F240F351FF901AB
:100A50006081680F606840E089EC93E028960FB6EB
:100A6000F894DEBF0FBECDBFDF91CF910C94E304AD
:100A700041E00E94E30481E090E0089585ED8093D9
:100A8000BC008091DD029091DE02A091DF02B09166
:100A9000E0020796A11DB11D23E0B695A795979595
:100AA00087952A95D1F72091BC0024FD03C01092B0
:100AB000DB0208954091DD025091DE026091DF0279
:100AC0007091E002452B462B472B69F30097A10557
:100AD000B10541F025E32A95F1F700000197A1093E
:100AE000B109E1CF8091DC020C94FB020C94770DEC
:100AF0001F93CF93DF9310926C0210926D021092AD
:100B00006E0210926F02C4E6D0E010E410937C00F5
:100B100080917A00806480937A0080917A0086FDCB
:100B2000FCCF8091780060917900762F682F072E96
:100B3000000C880B990B0E94660E2AE038E240EA0E
:100B40005BE30E94F70E20E030E040E250E40E94B8
:100B5000850D26EA3BE944E45CE30E94860D2DEC1A
:100B60003CEC4CEC5DE30E94F20D20916C02309164
:100B70006D0240916E0250916F020E94860D60934B
:100B80006C0270936D0280936E0290936F022197B6
:100B900009F0BCCF20E030E048EC52E40E94F20DB6
:100BA00060936C0270936D0280936E0290936F025B
:100BB00020E030E040E651E40E94F20E18167CF589
:100BC0000E94FA0460E080E00E94050588E391E05D
:100BD0000E94BD0461E080E00E94050583E491E08D
:100BE0000E94BD0470E060E086E00E944A0270E06E
:100BF00060E085E00E944A0210920F0310920E03FB
:100C00006091C50383E090E00E9476056091C70380
:100C100082E090E0DF91CF911F910C947605DF91F7
:100C2000CF911F9108950C946F0D1F920F920FB6E4
:100C30000F9211242F933F934F935F936F937F9362
:100C40008F939F93AF93BF93EF93FF938CE193E0C8
:100C50000E940A01FF91EF91BF91AF919F918F91F7
:100C60007F916F915F914F913F912F910F900FBEA8
:100C70000F901F9018951F920F920FB60F9211248C
:100C80002F938F939F93EF93FF93E0912C03F09119
:100C90002D038081E0913203F091330382FD1BC06C
:100CA0009081809135038F5F8F7320913603821777
:100CB00041F0E0913503F0E0E45EFC4F958F8093C6
:100CC0003503FF91EF919F918F912F910F900FBE60
:100CD0000F901F9018958081F4CF1F920F920FB63E
:100CE0000F9211242F933F938F939F93AF93BF93B2
:100CF00080910A0390910B03A0910C03B0910D0316
:100D00003091050323E0230F2D3758F50196A11DDF
:100D1000B11D2093050380930A0390930B03A093C6
:100D20000C03B0930D038091060390910703A091EB
:100D30000803B09109030196A11DB11D809306031C
:100D400090930703A0930803B0930903BF91AF9159
:100D50009F918F913F912F910F900FBE0F901F90F9
:100D6000189526E8230F0296A11DB11DD2CF1F9220
:100D70000F920FB60F9211242F933F934F935F93CF
:100D80006F937F938F939F93AF93BF93EF93FF9353
:100D90008091B900887F803609F44AC0F0F5883226
:100DA00009F4A5C018F5803109F499C0B8F4882376
:100DB00009F4F5C0883009F492C0FF91EF91BF911A
:100DC000AF919F918F917F916F915F914F913F91E3
:100DD0002F910F900FBE0F901F901895883109F436
:100DE00086C0803251F78093D90214C0803409F450
:100DF0009BC040F48033B9F38833F9F68093D9026D
:100E000085ECAEC0803509F483C0883509F494C000
:100E1000883499F60E943E05D0CF883909F48AC0FB
:100E200038F5883729F050F4883611F0803729F6E4
:100E300083E08093DB021092B40255C0883809F435
:100E400079C0803919F0803809F0B7CF8091B402A9
:100E5000803208F06FC0E091B40281E08E0F809381
:100E6000B4028091BB00F0E0EC56FD4F80833BC0A4
:100E7000803B39F0D0F4803A09F477C0883A09F021
:100E80009CCF84E08093DB02109293021092920236
:100E9000F0E0E0E009958091920281110FC081E0BD
:100EA000809392021092720209C0803C09F4A8CF8C
:100EB000883C09F4A5CF883B09F07FCFE0919302ED
:100EC00081E08E0F80939302F0E0EE58FD4F808119
:100ED0008093BB00909193028091920229C08091EF
:100EE000B6028093BB0085EC8093BC0066CF9091E6
:100EF000D8028091D702981758F5E091D80281E086
:100F00008E0F8093D802F0E0E954FD4F8081E9CF45
:100F1000E091D80281E08E0F8093D8028091BB00CF
:100F2000F0E0E954FD4F80839091D8028091D70280
:100F30009817C8F285E8D8CFE091D80281E08E0FEB
:100F40008093D8028091BB00F0E0E954FD4F80838C
:100F50008091DA0281115ECF81E08093B50284EA4C
:100F60008093BC001092DB0228CF85EC8093BC00FC
:100F70001092DB028091B402803230F4E091B4022E
:100F8000F0E0EC56FD4F10826091B40270E084E90D
:100F900092E0F0E0E0E009951092B4020ECF1092DA
:100FA000D90238CFECE1F3E01382128288EE93E0AD
:100FB000A0E0B0E084839583A683B7832CE031E082
:100FC0003183208325EC30E03587248724EC30E022
:100FD0003787268720EC30E0318B208B21EC30E006
:100FE000338B228B22EC30E0358B248B26EC30E0E7
:100FF000378B268B118E128E138E148EE9EBF3E055
:101000001382128284839583A683B7838EE191E055
:1010100091838083E9ECF3E01382128280E391E014
:101020009183808387E2848384E1818784E082875F
:10103000138682E090E00E94130690E09093C8032C
:101040008093C70383E090E00E94130690E09093A2
:10105000C6038093C5030895789484B5826084BDE7
:1010600084B5816084BD85B5826085BD85B58160AC
:1010700085BD80916E00816080936E00109281002A
:1010800080918100826080938100809181008160E5
:1010900080938100809180008160809380008091A6
:1010A000B10084608093B1008091B0008160809332
:1010B000B00080917A00846080937A0080917A00F9
:1010C000826080937A0080917A00816080937A00B8
:1010D00080917A00806880937A001092C100E0913C
:1010E0002C03F0912D0312E01083E0912803F0917E
:1010F00029031082E0912A03F0912B038FEC808367
:1011000010923403E0913003F091310386E0808344
:10111000E0912E03F0912F03808180618083E09124
:101120002E03F0912F03808188608083E0912E034D
:10113000F0912F03808180688083E0912E03F091ED
:101140002F0380818F7D80838091CE038860809380
:10115000CE031093D10362E370E080E090E00E9440
:10116000C8026091D40389EC93E00E94CB0368EE3F
:1011700073E080E090E00E94C80260E389EC93E0B5
:101180000E94CA04CBE4D6E4CE010197F1F760E3F4
:1011900089EC93E00E94CA042197F1F760E389EC9F
:1011A00093E00E94CA0483E592E00197F1F760E2C0
:1011B00089EC93E00E94CA046091CE03606240E033
:1011C00089EC93E00E94E30484E08093CF0340E045
:1011D0006CE089EC93E00E94E3040E94FA0410930F
:1011E000D00340E066E089EC93E00E94E30440E035
:1011F00062E089EC93E00E94E3048BE39FE10197B6
:10120000F1F70E94FA0460E083E00E940505109265
:10121000D40360E089EC93E00E94CB0381E090E08E
:10122000909311038093100361E085E00E941902FE
:1012300061E086E00E94190260E083E00E941902EA
:1012400060E082E00E94190260E084E00E941902DE
:1012500060E08AE00E94190260E08BE00E941902BF
:1012600060E08CE00E94190260E08EE00E941902AA
:1012700060E08FE00E941902DFEF80E0C82E80E07E
:10128000D82E92E0892EC1E0EE24E394F12C35E0D3
:10129000932E80911B03811154C070E060E086E0C2
:1012A0000E944A0270E060E085E00E944A021092CB
:1012B000D40360E089EC93E00E94CB030E94FA041F
:1012C00082E00E94C201019781F582E00E94C20182
:1012D0000197D9F3C0931B0360E081E090E00E9486
:1012E000760570E060E086E00E944A0270E060E00F
:1012F00085E00E944A020E94B2040E94FA0460E063
:1013000080E00E94050586E591E00E94BD0461E051
:1013100080E00E94050583E691E00E94BD0460ED37
:1013200077E080E090E00E94C802C114D10409F483
:10133000B0CF0E94F600882309F4ABCF0E940000D2
:10134000A8CF80911B03813081F7E0911A03E73029
:1013500060F70E2E000CFF0BE055F64F0C94880F33
:10136000B7090A0AAB0A0E0BAE0C0A0C550D0E9407
:10137000B2040E94FA0460E080E00E94050584E760
:1013800091E00E94BD0461E080E00E94050588E8CC
:1013900091E00E94BD0470E060E086E00E944A0295
:1013A00070E060E085E00E944A02109219031092FA
:1013B000180310921703109216031092C80310928C
:1013C000C7031092C6031092C50360E090E080E06E
:1013D0000E9476056091C70382E090E00E94760546
:1013E0006091C50383E090E00E947605609116034A
:1013F00085E090E00E9476058AE00E94C201019794
:1014000009F093CF8AE00E94C2010197D9F3C093FB
:101410001A038BCF1092120310921303109214032D
:10142000109215038AE00E94C2010197C1F58091D4
:10143000120390911303A0911403B09115032FB7D9
:10144000F89440910A0350910B0360910C03709142
:101450000D032FBF841B950BA60BB70B8838934148
:10146000A105B105F8F20E94B2040E94FA0460E0FE
:1014700080E00E94050588E991E00E94BD0460EDCE
:1014800077E080E090E00E94C8021092D40360E010
:1014900089EC93E00E94CB0310921A03C3CF809192
:1014A0001A03882309F449C00E94B2040E94FA0476
:1014B00060E080E00E94050586EA91E00E94BD049C
:1014C00060E081E00E9405058CEA91E00E94BD0485
:1014D00070E060E086E00E944A0270E060E085E033
:1014E0000E944A02F0921103E09210031092190335
:1014F0001092180310921703109216031092C8034B
:101500001092C7031092C6031092C50360E090E0EA
:1015100080E00E9476056091C70382E090E00E941F
:1015200076056091C50383E090E00E9476056091A6
:10153000160385E090E00E9476058CE00E94C201CF
:10154000019709F0F2CE8CE00E94C2010197D9F315
:1015500080921A03EACE009110031091110301301A
:10156000110509F04CC00E94B2040E94FA0460E028
:1015700080E00E9405058FEB91E00E94BD0470E0C1
:1015800060E086E00E944A026AEA70E085E00E941C
:101590004A0210930F0300930E0380910E03909163
:1015A0000F03892B09F4BDC18CE00E94C201019791
:1015B000A1F78CE00E94C2010197D9F30E94FA04BE
:1015C00060E080E00E94050580ED91E00E94BD048E
:1015D00061E080E00E9405058EED91E00E94BD046F
:1015E00070E060E086E00E944A0270E060E085E022
:1015F0000E944A0210920F0310920E03CECF8BE08E
:101600000E94C201019709F090CE8BE00E94C201B6
:101610000197D9F383E080931A0387CE809110035A
:1016200090911103892B09F0DCC00E94B2040E9442
:10163000FA0460E080E00E94050580EF91E00E94DE
:10164000BD046EEB70E086E00E944A0270E060E04C
:1016500085E00E944A02F0920F03E0920E0310927E
:10166000C8031092C7031092C6031092C50380915D
:101670000E0390910F03892B09F488C00E9478050E
:101680008FE00E94C2010197F1F48FE00E94C20135
:101690000197D9F38091C7039091C8038F3F9105BB
:1016A00009F06EC01092C8031092C7038091C50361
:1016B0009091C60301969093C6038093C50361E0A1
:1016C00080E00E9405058BE00E94C201019729F588
:1016D0008BE00E94C2010197D9F30E94FA0460E0F6
:1016E00080E00E94050580E092E00E94BD0461E078
:1016F00080E00E9405058DE092E00E94BD0470E04C
:1017000060E086E00E944A0270E060E085E00E94AE
:101710004A0210920F0310920E032091C5033091DC
:10172000C603D29FC001D39F900D11242091C703FF
:101730003091C803820F931F079709F098CF0E943A
:10174000FA0460E080E00E9405058FE192E00E94CB
:10175000BD0461E080E00E9405058DE092E00E94FA
:10176000BD0470E060E086E00E944A0270E060E044
:1017700085E00E944A0210920F0310920E0377CF69
:1017800001969093C8038093C70399CF6091C703D4
:101790008091C80360931803809319038091C50357
:1017A0009091C603909317038093160390E080E016
:1017B0000E9476056091160385E090E00E94760510
:1017C0006091C50383E090E00E9476056091C703B5
:1017D00082E090E00E947605F0921103E0921003FF
:1017E000A4CD84E00E94C201019741F484E00E94EC
:1017F000C2010197D9F390921A0397CD8AE00E9413
:10180000C201019709F091CD8AE00E94C2010197BF
:10181000D9F3FDCDA0901003B090110381E0A8167C
:10182000B10409F083C00E94B2040E94FA0460E08F
:1018300080E00E94050580E392E00E94BD0461E023
:1018400080E00E94050585EA91E00E94BD0470E0F9
:1018500060E086E00E944A026AEA70E085E00E9449
:101860004A0290E080E00E941306082F10E01093D7
:1018700019030093180385E090E00E941306282FB7
:1018800030E030931703209316038D9F000D111D38
:101890001124B0920F03A0920E0380910E03909139
:1018A0000F03892B59F10E9478058FE00E94C20135
:1018B000019751F48FE00E94C2010197D9F30115FD
:1018C000110529F0015011090115110531F70E9488
:1018D000FA048FE392E00E94BD0470E060E086E0CD
:1018E0000E944A0270E060E085E00E944A02109285
:1018F0000F0310920E0310E000E0CFCF1092C80348
:101900001092C7031092C6031092C50360E082E0F4
:1019100090E00E9476056091C50383E090E00E940C
:1019200076051092110310921003FFCC83E00E9401
:10193000C201019739F483E00E94C2010197D9F3F3
:1019400084E069CE8AE00E94C201019709F0EDCCE3
:101950008AE00E94C2010197D9F359CD009110038A
:10196000109111030115110509F088C06EEB70E0AC
:1019700086E00E944A0270E060E085E00E944A0230
:1019800090E080E00E94130690E09093190380930A
:10199000180385E090E00E94130690E090931703EF
:1019A000809316030E94B2040E94FA0460E080E073
:1019B0000E9405058EE492E00E94BD0461E080E093
:1019C0000E94050585EA91E00E94BD04F0920F0394
:1019D000E0920E0380910E0390910F03892BA9F1E1
:1019E0000E9478058FE00E94C201019739F48FE0D0
:1019F0000E94C2010197D9F30F5F1F4F2091160378
:101A000030911703D29FC001D39F900D11242091D4
:101A1000180330911903820F931F80179107D1F695
:101A20000E94FA048CE592E00E94BD0470E060E040
:101A300086E00E944A0270E060E085E00E944A026F
:101A400010920F0310920E03C5CF6091180380917E
:101A500019036093C7038093C80380911603909184
:101A600017039093C6038093C50382E090E00E9421
:101A700076056091C50383E090E0ACCE84E00E94DF
:101A8000C201019731F484E00E94C2010197D9F3A9
:101A9000B2CE8AE00E94C201019709F046CC8AE0EA
:101AA0000E94C2010197D9F3B2CC84E00E94C20126
:101AB000019749F484E00E94C2010197D9F384E0C0
:101AC00080931A0389CE8AE00E94C201019709F02F
:101AD0002CCC8AE00E94C2010197D9F398CCF999E5
:101AE000FECF92BD81BDF89A992780B50895262F23
:101AF000F999FECF1FBA92BD81BD20BD0FB6F894F3
:101B0000FA9AF99A0FBE019608955058BB27AA2752
:101B10000E949D0D0C94B80E0E94AA0E38F00E94EF
:101B2000B10E20F039F49F3F19F426F40C94A70E5F
:101B30000EF4E095E7FB0C94A10EE92F0E94C90E6C
:101B400058F3BA17620773078407950720F079F4F2
:101B5000A6F50C94EB0E0EF4E0950B2EBA2FA02DEB
:101B60000B01B90190010C01CA01A0011124FF274A
:101B7000591B99F0593F50F4503E68F11A16F04045
:101B8000A22F232F342F4427585FF3CF4695379544
:101B90002795A795F0405395C9F77EF41F16BA0B09
:101BA000620B730B840BBAF09150A1F0FF0FBB1FB7
:101BB000661F771F881FC2F70EC0BA0F621F731F00
:101BC000841F48F4879577956795B795F7959E3F5D
:101BD00008F0B0CF9395880F08F09927EE0F9795EE
:101BE000879508950E94060E0C94B80E0E94B10EBF
:101BF00058F00E94AA0E40F029F45F3F29F00C949F
:101C0000A10E51110C94EC0E0C94A70E0E94C90E5B
:101C100068F39923B1F3552391F3951B550BBB271B
:101C2000AA2762177307840738F09F5F5F4F220F60
:101C3000331F441FAA1FA9F335D00E2E3AF0E0E857
:101C400032D091505040E695001CCAF72BD0FE2FA1
:101C500029D0660F771F881FBB1F26173707480735
:101C6000AB07B0E809F0BB0B802DBF01FF279358ED
:101C70005F4F3AF09E3F510578F00C94A10E0C9402
:101C8000EC0E5F3FE4F3983ED4F386957795679525
:101C9000B795F7959F5FC9F7880F911D9695879522
:101CA00097F90895E1E0660F771F881FBB1F621741
:101CB00073078407BA0720F0621B730B840BBA0BFF
:101CC000EE1F88F7E0950895E89409C097FB3EF46D
:101CD00090958095709561957F4F8F4F9F4F992379
:101CE000A9F0F92F96E9BB279395F69587957795F7
:101CF0006795B795F111F8CFFAF4BB0F11F460FFB7
:101D00001BC06F5F7F4F8F4F9F4F16C0882311F00E
:101D100096E911C0772321F09EE8872F762F05C022
:101D2000662371F096E8862F70E060E02AF09A95BD
:101D3000660F771F881FDAF7880F9695879597F9B2
:101D4000089597F99F6780E870E060E008959FEF3D
:101D500080EC089500240A94161617061806090642
:101D6000089500240A941216130614060506089511
:101D7000092E0394000C11F4882352F0BB0F40F499
:101D8000BF2B11F460FF04C06F5F7F4F8F4F9F4FD9
:101D9000089557FD9058440F551F59F05F3F71F05B
:101DA0004795880F97FB991F61F09F3F79F08795C2
:101DB0000895121613061406551FF2CF4695F1DF4B
:101DC00008C0161617061806991FF1CF86957105DB
:101DD000610508940895E894BB2766277727CB010F
:101DE00097F908950E94640F08F48FEF08950E94F8
:101DF0000A0F0C94B80E0E94AA0E38F00E94B10E81
:101E000020F0952311F00C94A10E0C94A70E112430
:101E10000C94EC0E0E94C90E70F3959FC1F3950FC0
:101E200050E0551F629FF001729FBB27F00DB11D5E
:101E3000639FAA27F00DB11DAA1F649F6627B00DEE
:101E4000A11D661F829F2227B00DA11D621F739FD7
:101E5000B00DA11D621F839FA00D611D221F749FE5
:101E60003327A00D611D231F849F600D211D822F2C
:101E7000762F6A2F11249F5750409AF0F1F0882353
:101E80004AF0EE0FFF1FBB1F661F771F881F915080
:101E90005040A9F79E3F510580F00C94A10E0C9480
:101EA000EC0E5F3FE4F3983ED4F386957795679503
:101EB000B795F795E7959F5FC1F7FE2B880F911DAA
:101EC0009695879597F90895990F0008550FAA0BD5
:101ED000E0E8FEEF16161706E807F907C0F012163D
:101EE0001306E407F50798F0621B730B840B950B40
:101EF00039F40A2661F0232B242B252B21F4089595
:101F00000A2609F4A140A6958FEF811D811D089531
:101F1000EE0FFF1F0590F491E02D0994F894FFCF88
:101F20000000400014005400000000002C018C0050
:101F3000B9007901EA00C800DC00000000009C0341
:101F40006F03BA04610368036503620300000000C5
:101F500038058C00BA04FA02536F627265636172CD
:101F60006761005465636C6520626F74616F206403
:101F7000657363657200424F54414F5F4C4947415E
:101F8000646F00456C657661646F726573204861AB
:101F900072616800436F6E66696775726172204591
:101FA0006C657661646F72005072657373696F6EF1
:101FB000652072657365740052455345542046414F
:101FC00042524943410052455345540075736520C0
:101FD00073616C7661722064657363696461005338
:101FE000616C76616E646F2044657363696461003F
:101FF000446573636964612053616C766100757335
:10200000652073616C76617220737562696461002A
:1020100053616C76616E646F205375626964610010
:102020005375626964612053616C76610050726F10
:102030006772616D6163616F2073616C76610043EB
:102040006865676F7520616F204D6178696D6F00FD
:10205000566172616C2064657363656E646F0043E2
:102060006865676F7520656D626169786F0056619C
:1020700072616C20537562696E646F0043686567B6
:0C2080006F75206E6F20746F706F000091
:00000001FF
